:020000040800F2
:10000000F8040020010100080F1E0008171C00085A
:100010000D1E00080D020008A121000800000000CC
:100020000000000000000000000000002520000883
:10003000BD02000800000000111E00082720000873
:100040001B0100081B0100081B0100081B01000820
:100050001B0100081B0100081B0100081B01000810
:100060001B0100081B0100081B0100081B01000800
:100070001B0100081B0100081B0100081B010008F0
:100080001B0100081B0100081B0100081B010008E0
:10009000952100081B0100081B0100081B01000836
:1000A0001B010008B12000081B0100081B0100080B
:1000B0001B0100081B0100081B0100081B010008B0
:1000C0001B0100081B0100081B0100081B010008A0
:1000D0001B0100081B0100081B0100081B01000890
:1000E0001B0100081B0100081B010008DFF80CD0F1
:1000F00000F07AF800480047E1210008F8040020E9
:100100000648804706480047FEE7FEE7FEE7FEE7B1
:10011000FEE7FEE7FEE7FEE7FEE7FEE7AD200008AC
:10012000ED0000082DE9F05F0546002092469B4651
:1001300088460646814640241BE0284641464746FD
:10014000224600F020F853465A46C01A914110D377
:1001500011461846224600F038F82D1A67EB0108C0
:100160004F4622460120002100F02FF817EB00092E
:100170004E41201EA4F10104DFDC484631462A46E8
:100180004346BDE8F09F202A04DB203A21FA02F022
:100190000021704721FA02F3D040C2F120029140C1
:1001A000084319467047D2B201E000F8012B491EFE
:1001B000FBD270470022F6E710B513460A46044604
:1001C0001946FFF7F0FF204610BD202A04DB203A35
:1001D00000FA02F1002070479140C2F1200320FA9A
:1001E00003F3194390407047064C074D06E0E06862
:1001F00040F0010394E8070098471034AC42F6D36E
:10020000FFF778FF4823000868230008FEE7000096
:1002100000B58BB000204FF480410590CDE900106F
:100220004FF6E071CDE9021004900690012007908E
:1002300008900E20099069460A4800F0B8F808B105
:1002400000F03DF80221074800F03BF808B100F04B
:1002500036F8044800F009FC002801D000F02FF81F
:100260000BB000BD2800002070B51E4613460024C8
:1002700088B0224648B10420CDE90110CDE903231E
:100280008DF814204FF6FE7506E002920091F5E716
:10029000641CA4B2AC420CD8074800F073F90028E3
:1002A000F6D006AB32466946034800F01CF8002839
:1002B00000D0012008B070BD28000020704772B641
:1002C000FEE790F82020012A07D0022A05D0416AD3
:1002D00041F48021416201207047006842690A436D
:1002E000426100207047F0B590F820500468A4687F
:1002F000012D05D0022D03D0416A41F4802153E045
:1003000014F0406F01D1E5004BD5C4F30164022C19
:1003100003D9416A41F4000146E00125A5401D6072
:100320008B684FF4C0759BB1CE6833434E6843EA87
:10033000C603066805EB0417F3514FF4C273076850
:1003400003EB04130E69FE50097D012905D009E075
:100350000E88CB6843EA4653EBE70168CE5846F473
:100360008076CE501179D2F805304FF4C67641EA46
:100370000323016806EB04168B511178D2F8012093
:100380004FF4C47341EA0221026803EB0413D15015
:10039000006805EB0411425842F00102425000206F
:1003A000F0BD416A41F4001141620120F0BD10B579
:1003B00090F820300268012B07D0022B05D0416A4B
:1003C00041F480214162012010BDD2F8000240F0CA
:1003D0000100C2F80002087D00F01F0301209840D0
:1003E000D2F81C328343C2F81C32CB69B3B9D2F8BD
:1003F0000C328343C2F80C328C894B6864F31F4380
:100400004C6902EBC404C4F840320C890B6864F3F5
:100410001F434C6902EBC404C4F84432CB69012B7E
:1004200016D1D2F80C320343C2F80C320C884B6858
:1004300064F31F434C6902EBC404C4F840320C89D6
:10044000CB6864F31F434C6902EBC404C4F8443224
:100450008B69002BD2F804320ED00343C2F8043269
:100460000B69002BD2F8143208D00343C2F81432BF
:10047000096A012904D008E08343EFE78343F5E7E5
:10048000D2F81C120143C2F81C12D2F8000220F06C
:100490000100C2F80002002010BD704730B590F88E
:1004A0002040012C05D0022C03D0416A41F4802168
:1004B0005DE00468002955D02469A40754D04FF4A6
:1004C000D874056804EB01142D5915F004059560E6
:1004D00005682D594ED0ED08556005682C5904F07B
:1004E0000204D4604FF4DA74056804EB01142D594A
:1004F00005F00F05156105682D59C5F307259561B0
:1005000005682C59240C54614FF4DC72046802EB2A
:100510000112A4581C700468A458240A5C70046872
:10052000A458240C9C700468A258120EDA704FF480
:10053000DE72046802EB0112A4581C710468A4580E
:10054000240A5C710468A458240C9C710468A258A5
:10055000120EDA71006881B1016941F02001016178
:10056000002030BDE468A8E7416A41F4001141620F
:10057000012030BD6D0D1560AFE7C16841F020016D
:10058000C160EDE70246002092F82010012901D059
:1005900002290CD111688A68520100D501208A68AD
:1005A000120100D5401C8968C90000D5401C704765
:1005B0002DE9F05F0546006800244669D0F80490F4
:1005C0008768D0F80CB0D0F810A0D0F81880F107E8
:1005D00048D0F90714D001218160B80703D5284617
:1005E00000F06FFA0CE0780702D54FF4006407E0E2
:1005F000380702D54FF4805402E0284600F060FA34
:10060000F80516D529684FF480708860B80503D5C1
:10061000284600F058FA0CE0780502D544F400545E
:1006200007E0380502D544F4804402E0284600F093
:1006300049FAF80316D529684FF480308860B8036A
:1006400003D5284600F041FA0CE0780302D544F4C3
:10065000004407E0380302D544F4803402E0284621
:1006600000F032FA300707D55FEACB6004D529687D
:10067000102044F40074C86070074FF0080707D5D5
:100680005FEA0B7004D52868C760284600F05AF965
:10069000B00706D52868C068800702D0284600F059
:1006A00053F9700607D55FEACA6004D5296810209F
:1006B00044F480640861B00607D55FEA0A7004D587
:1006C00028680761284600F0CDF9F00606D52868AD
:1006D0000069800702D0284600F0C5F9B00308D5AC
:1006E0005FEAC96005D5296810204860284600F0F7
:1006F000BBF9F00307D55FEA097004D528684760A5
:10070000284600F0E3F9300446D55FEA497040D549
:10071000F00504D55FEAC87001D044F00104B005CB
:1007200004D55FEA887001D544F00204700504D551
:100730005FEA487001D544F00404300529D518F06B
:10074000700F26D008F07000402815D006DC102865
:1007500009D020280AD0302816D10AE050280ED01F
:10076000602811D10EE044F008040DE044F01004BC
:100770000AE044F0200407E044F0400404E044F0C0
:10078000800401E044F480742868816921F07001DC
:100790008161296804204860002C05D0686A2043E4
:1007A00068622846FFF779FEBDE8F09F70B5040047
:1007B00003D094F8200010B104E0012070BD204661
:1007C00000F082F82068016841F00101016000F04A
:1007D0007DFA0546052604E000F078FA401B0A2859
:1007E00011D820684068C007F6D02068016821F061
:1007F0000201016000F06AFA05460BE000F066FABB
:10080000401B0A2806D9606A40F40030606284F810
:100810002060D2E7206840688007EFD4207E01285E
:10082000206801683DD021F080010160607E0128D0
:100830002068016838D021F040010160A07E0128C5
:100840002068016833D021F020010160E07E01289A
:10085000206801682ED041F010010160207F01283E
:100860002068016829D021F008010160607F01281B
:100870002068016824D021F004010160D4E902015C
:100880000843D4E90412114308436168491E084330
:100890002168C86100206062012084F820000020E7
:1008A00070BD41F08001C0E741F04001C5E741F073
:1008B0002001CAE721F01001CFE741F00801D4E799
:1008C00041F00401D9E7000010B586B00021009185
:1008D0000191029103910068174988422AD1174873
:1008E000C16941F00071C161C16901F000710491F9
:1008F000816941F0040181618069114C00F00400BC
:1009000004904FF4006000906946204600F0F2F831
:10091000A11400910221019103210391694620460F
:1009200000F0E8F800220121142000F03BFA142026
:1009300000F02AFA06B010BD00640040001002402A
:10094000000801407047000030B587B0424B6A464E
:100950000021FFF7A3FD00287BD13F4C3F482178C1
:1009600001703F4821B1012973D101223F216EE07E
:10097000A178032953D009DCE9B3012944D0022925
:1009800067D1E178012947D0012246E004294ED001
:10099000052955D0FF295CD1E178054641F30002D5
:1009A0002021521C00F08CF9E078102140F3400225
:1009B0002846521C00F084F9E078082140F38002B8
:1009C0002846521C00F07CF9E078042140F3C00274
:1009D0002846521C00F074F9E078022140F300121E
:1009E0002846521C00F06CF9E078012140F34012D7
:1009F0002846521C2BE0FFE7E178012901D00122B3
:100A000000E00022202122E0E178012901D001222A
:100A100000E0002210211AE00022082117E0E1780E
:100A2000012901D0012200E0002204210FE0E17839
:100A3000012901D0012200E00022022107E008E0A4
:100A4000E178012901D0012200E00022012100F01B
:100A500037F907B030BD0000100000200200002070
:100A60000008014070477047704770B5044690F821
:100A70002000012804D0606A40F40020606217E082
:100A8000022084F820002068016821F00101016043
:100A900000F01CF905460DE000F018F9401B0A288B
:100AA00008D9606A40F400306062052084F82000B4
:100AB000012070BD20684068C007EDD1606270BD44
:100AC0007047704770477047704770477047000025
:100AD00070B5044600F0FAF80546601C02D00448E0
:100AE0000078044400F0F2F8401BA042FAD370BD35
:100AF000180000202DE9F84FDFF8A491002409F137
:100B0000040A0AF1040B23464FF00F080BF1040E00
:100B1000BEE00127A7403A40BA4272D1DFF884C153
:100B20004D68A5EB0C0665452BD00DDC032D34D0AC
:100B300005DC35B3012D19D0022D2FD11BE0112D6D
:100B400016D0122D2AD119E0B6F5881F19D006DC6F
:100B5000B6F5803F15D0B6F5801F1FD111E0B6F570
:100B6000001F0ED0B6F5041F18D10AE0CB6815E0BF
:100B7000CB681B1D12E0CB6808330FE0CB680C3349
:100B80000CE08B682BB1012B4FF0080303D04761B9
:100B900004E0042302E0076100E00023FF2A01D8FB
:100BA000064601E000F104064FEA840501D9A5F1EB
:100BB0002005376808FA05FC27EA0C0703FA05F553
:100BC00047EA050737604D68ED0060D5364DAE69E0
:100BD00046F00106AE61AD6924F0030605F001059B
:100BE0000095324D7719BE68A5072D0F08FA05FC50
:100BF00026EA0C06DFF8B8C0604503D14FF0000CC0
:100C000017E044E0DFF8ACC0604502D14FF0010CC2
:100C10000FE0DFF8A4C0604502D14FF0020C08E0FD
:100C2000DFF898C0604502D14FF0030C01E04FF0AF
:100C3000040C0CFA05FC4CEA060CC7F808C04D6819
:100C4000D9F80060ED034D4601D5164300E0964308
:100C50002E604D68DAF80060AD03554601D51643A5
:100C600000E096432E604D68DBF80060ED025D46C3
:100C700001D5164300E096432E604D68DEF8006013
:100C8000AD02754601D5164300E096432E60641C04
:100C90000A6832FA04F57FF43CAFBDE8F88F000033
:100CA000000401400000111000100240000001404B
:100CB00000080140000C01400010014000140140F8
:100CC0000AB1016170470904FBE700000148806830
:100CD0007047000018000020024881680278114423
:100CE0008160704718000020074810B5016841F086
:100CF00010010160032000F075F8002000F006F8F4
:100D000000F024F8002010BD0020024070B50D4D09
:100D100004464FF47A712878B1FBF0F00A4909686B
:100D2000B1FBF0F000F067FD48B9102C07D20022AB
:100D30002146501E00F036F800206C6070BD012086
:100D400070BD000018000020240000200C4808B5E9
:100D5000816941F001018161816901F00101009126
:100D6000C16941F08051C161C069064900F08050FD
:100D70000090486820F0E06040F00070486008BDD6
:100D80000010024000000140002809DB00F01F02B3
:100D9000012191404009800000F1E020C0F80011DD
:100DA00070470000F0B40E4B1B68C3F30223C3F17D
:100DB0000704042C00D904241D1D072D01D2002393
:100DC00000E0DB1E012606FA04F56D1E0D409D4075
:100DD0009E40761E164045EA0601F0BC01F0E1B9DE
:100DE0000CED00E0064A00F0070110684FF6FF0323
:100DF000184040EA01200349084310607047000092
:100E00000CED00E00000FA0501490120086270477E
:100E100000000E4210B5014627A086B01DC88DE81F
:100E20001D0029A0294C006804900020012922D02F
:100E3000022939D010291CD161682268D20118D545
:100E4000C1F38342C9031DF8020009D5616804AAF1
:100E5000C1F34041515C1E4AB2FBF1F1484301E04D
:100E60001C4948436168490203D440000321B0FB98
:100E7000F1F006B010BD216AC1F30122012A03D1AD
:100E8000890701D5D003F4E7022A05D1616A8907F1
:100E900002D549F64040ECE7032AEAD121688903EC
:100EA000E7D54FF22440E4E700F026F96168C1F38A
:100EB0008131491C4900DAE70203040506070809E5
:100EC0000A0B0C0D0E0F1010010200000010024062
:100ED00000127A0000093D002DE9F843044600782D
:100EE000344FC00752D0F8690025C00008D4F86913
:100EF00040F08050F861F869012500F080500090C2
:100F00002D480168C90511D40168804641F48071FB
:100F10000160FFF7DBFE064604E0FFF7D7FE801B0B
:100F2000642822D8D8F80000C005F6D5386A10F435
:100F3000407020D0A18801F4407181421BD0386AF2
:100F40001E49012220F440700A6000220A603862C3
:100F5000C00710D0FFF7BAFE064641F2883807E016
:100F6000FFF7B4FE811B414502D90320BDE8F88399
:100F7000386A8007F4D5386A616820F44070084305
:100F800038621DB1F86920F08050F8612078800740
:100F900005D57868A16820F440400843786020783F
:100FA000C00605D57868E16820F4800008437860C1
:100FB0000020DBE700100240007000404004424285
:100FC0002DE9F0470D46040067D0DFF81881D8F806
:100FD000000000F00700A8420CD2D8F8001021F061
:100FE00007012943C8F80010D8F8000000F00700F6
:100FF000A84252D120683C4E810712D5400703D544
:10100000706840F4E06070602078000703D5706875
:1010100040F4605070607068A16820F0F0000843F0
:1010200070602078C00727D06068012810D0316830
:10103000022810D0890700292FDA716821F00301F6
:1010400001437160FFF742FE074641F288390CE028
:1010500031688903EFE78901EDE7FFF737FEC11B30
:10106000494502D90320BDE8F0877068616800F047
:101070000C00B0EB810FF0D1D8F80010404601F021
:101080000701A9420BD9016821F00701294301603A
:10109000006800F00700A84201D00120E3E72078B3
:1010A000400705D57068E16820F4E060084370608F
:1010B0002078000706D57068216920F4605040EA66
:1010C000C100706000F028F87168084AC1F303118C
:1010D000515CC8400649086006480068FFF716FEE4
:1010E0000020C0E70020024000100240302300082A
:1010F000240000201C0000200448054900684968BD
:10110000044AC1F3C221515CC8407047240000204A
:10111000001002404023000812A085B00FC88DE8DF
:101120000F0014A0144B006804905968134801F094
:101130000C02042A10D0082A0ED1C1F38342C9033D
:101140001DF802000AD5596804AAC1F34041515C58
:101150000A4A5043B0FBF1F005B0704708494843D4
:10116000FAE7000002030405060708090A0B0C0D44
:101170000E0F1010010200000010024000127A0051
:1011800000093D002DE9F84F04006FD02078BE4DD6
:10119000C00747D06868C0F38100012807D068689D
:1011A000C0F38100022809D16868C00306D5286809
:1011B000800337D560680028E7D033E06068B0F579
:1011C000803F0BD010B1B0F5A02F11D0286820F4CB
:1011D00080302860286820F4802002E0286840F4ED
:1011E00080302860606888B1FFF770FD064609E02E
:1011F000286840F480202860F0E7FFF767FD801B37
:10120000642873D828688003F7D50BE0FFF75EFDEC
:10121000064604E0FFF75AFD801B6428F1D82868D1
:101220008003F7D42078DFF8648280074FF0010A4A
:101230004FF0000939D5686810F00C0F07D06868C6
:10124000C0F38100022809D16868C00306D4286869
:10125000800714D52069012808D110E02069B0B1B9
:10126000C8F800A0FFF732FD064605E007E1FFF7EA
:101270002DFD801B0228C4D828688007F7D5286870
:10128000616920F0F80040EAC10028600DE0C8F86C
:101290000090FFF71BFD064604E0FFF717FD801BDB
:1012A000022823D828688007F7D4207800072CD597
:1012B0007748A169D9B1C0F800A0FFF707FD06463D
:1012C00004E0FFF703FD801B02280FD8686A80073F
:1012D000F7D570484FF4FA510068B0FBF1F0009078
:1012E00000BF0098411E0091FAD20EE07CE0C0F8E9
:1012F0000090FFF7EBFC064604E0FFF7E7FC801BDD
:10130000022871D8686A8007F7D4207840075BD537
:10131000E8690027C00008D4E86940F08050E8611F
:10132000E869012700F0805000905B480168C9051A
:1013300011D40168834641F480710160FFF7C6FC57
:10134000064604E0FFF7C2FC801B64284CD8DBF89B
:101350000000C005F6D5E06801280AD008B10528CC
:1013600013D0286A20F001002862286A20F00400C7
:1013700002E0286A40F001002862E06841F2883B00
:1013800088B1FFF7A3FC064609E0286A40F0040094
:101390002862EEE7FFF79AFC811B59455BD8286A63
:1013A0008007F7D50BE0FFF791FC064604E0FFF756
:1013B0008DFC811B59454ED8286A8007F7D41FB190
:1013C000E86920F08050E861E069A8B36968C1F37A
:1013D0008101022946D00228484606D0C8F860009C
:1013E000FFF774FC044639E035E04746C8F8600072
:1013F000FFF76CFC064604E0FFF768FC801B022840
:1014000029D828688001F7D4206AB0F5803F05D13B
:101410006868A16820F4003008436860D4E90801D6
:101420000843696821F4741108436860C7F860A034
:10143000FFF74CFC044605E023E0FFF747FC001BE8
:10144000022808D828688001F7D51AE0FFF73EFC8B
:10145000001B022802D90320BDE8F88F286880010C
:10146000F4D40EE00128F7D06868226A00F48031D5
:10147000914204D1616A00F47010884201D00120C9
:10148000EAE70020E8E700000010024000004242C6
:101490008004424224000020007000402DE9F04703
:1014A00091460C465FEA00084AD084B3D8F80000A1
:1014B0004068400744D4404600F051FD4FF461625B
:1014C000B0FBF2F10546B0FBF2F002FB10533C20FA
:1014D000B3FBF0F36370B5FBF2F302FB1352B2FB04
:1014E000F0F300FB1320A070182931D31820B1FBB2
:1014F000F0F6B1FBF0F200FB12102070404600F055
:1015000027FD411C04D0A84202D9471B02E017E086
:101510004FF0FF37A6EB061000EB4000C0EB0010C9
:1015200005EBC0152946404600F068FD40B9781C1F
:1015300001D0791900E03946404600F04BFD10B16A
:101540000120BDE8F0873146404600F076FC00E01F
:101550002170B9F1000F0BD0207800F063FC2070EF
:10156000607800F05FFC6070A07800F05BFCA07019
:101570000020E6E770B5040003D0607C002610B1BF
:1015800005E0012070BD2674204600F043F80220DB
:101590006074204600F012F9042578BB204600F064
:1015A000A3FC58BB2068416821F007014160A06896
:1015B00020B11748016821F0010101601448001FA3
:1015C0000168A26821F46071114301606068411CE8
:1015D00004D10120FFF71EFC80B1401E21688A68FB
:1015E00022F00F0242EA10428A602168CA6860F362
:1015F0000F02CA60204600F091FC08B16574C0E794
:10160000E67301206073A0736074002070BD000059
:10161000306C004008B50068084988420DD1FFF7DA
:10162000F3FB0748C16941F00061C161C069054928
:1016300000F0006000900120086008BD0028004014
:10164000001002403C0442422DE9F0410D460400E6
:101650003BD0C5B3207C01283AD04FF0010884F874
:10166000108002206074E87872B300F0D2FBE0735F
:10167000687800F0CEFB6073A87800F0CAFBA07316
:10168000C2B2617BE07B00F07AFC207328702046B8
:1016900000F065FC4FF46161B0FBF1F10025182901
:1016A0002DD91822B1FBF2F1A1EB011101EB41019F
:1016B000C1EB011100EBC1163146204600F09EFC43
:1016C0000427C8B90BE000E004E00120BDE8F08188
:1016D0000220FBE7E07368786073A878CFE72046C4
:1016E00000F036FC411C0AD0B04208D20649014441
:1016F000204600F06FFC10B167742574E5E784F8AC
:10170000118025740020E1E7805101002DE9F041AE
:101710000D46040024D01DB3207C012823D04FF0B7
:10172000010884F8108002206074F2B1287800F07B
:1017300070FB4FF4616100FB01F6687800F069FB13
:10174000C0EB001006EB8006A87800F062FB3518AD
:101750002946204600F052FC0026042718BB10E062
:101760000120BDE8F0810220FBE729784FF4616099
:1017700041436878C0EB001001EB8000A978451860
:10178000E6E72068416821F005014160204600F04D
:10179000DFFB411C0AD0A84208D207490144204679
:1017A00000F018FC10B167742674D9E784F8118032
:1017B00026740020D5E700008051010070B50400B8
:1017C0000AD02068416821F008014160FFF77EFAE5
:1017D00005464FF47A7608E0012070BDFFF776FAEF
:1017E000401BB04201D9032070BD2068406800074B
:1017F000F4D5002070BD10B5401EB0F1807F01D33C
:10180000012010BD4FF0E02460610F21601700F04F
:10181000C8FC0020A06107202061002010BD704797
:101820007047000070B590F83C20012A26D00125B1
:1018300080F83C50022280F83D200268536894688A
:1018400023F070060B68334353600D4B02689A42D5
:1018500008D0B2F1804F05D00A4B9A4202D00A4B11
:101860009A4204D1496824F080031943916080F8BA
:101870003D50002180F83C10084670BD022070BD2C
:10188000002C0140000400400008004010B5040096
:1018900003D094F83D0010B107E0012010BD0020F6
:1018A00084F83C00204600F01FF8022084F83D0038
:1018B000211D206800F002FC012084F8460084F815
:1018C0003E0084F83F0084F8400084F8410084F82A
:1018D000420084F8430084F8440084F8450084F80A
:1018E0003D00002010BD000008B50068104A1149F5
:1018F000904211D1886940F40060886188690022B3
:1019000000F40060009002211920FFF74BFABDE8B7
:1019100008401920FFF738BA074A904207D1C86932
:1019200040F00400C861C86900F00400009008BDE0
:10193000002C0140001002400008004090F83D10CB
:10194000012901D001207047022180F83D10016873
:10195000CA6842F00102CA6000680B49884208D098
:10196000B0F1804F05D00949884202D00849884229
:1019700004D1816801F00701062903D0016841F014
:101980000101016000207047002C0140000400406C
:101990000008004070B5044690F83C00012817D0BC
:1019A000012584F83C50022084F83D0020688268BC
:1019B00022F0770222F47F4282600868502830D0FB
:1019C0000DDC20284DD005DC98B310283BD148E031
:1019D000022070BD302844D0402834D139E060283E
:1019E00028D0702806D0B0F5805F2CD0B0F5005F0D
:1019F00029D10AE0CB68D1E90121206800F094FBED
:101A00002068816841F0770109E0CB68D1E90121C4
:101A1000206800F089FB2068816841F48041816082
:101A200011E0CA684968206800F090FB50212068E6
:101A300007E016E0CA684968206800F098FB60215A
:101A4000206800F07BFB84F83D50002084F83C00C7
:101A500070BDCA684968206800F078FB40212068A2
:101A6000EFE7226801461046EBE7704770B5044681
:101A7000006801694FF00005C943890715D4C168A2
:101A8000C943890711D4E91E01610120207720682C
:101A900080698007204602D0FFF7E7FF04E000F0EE
:101AA00098F8204600F096F8257720680169C94328
:101AB000490717D4C168C943490713D46FF004011B
:101AC0000161022020772068806910F4407F204661
:101AD00002D0FFF7CAFF04E000F07BF8204600F0D8
:101AE00079F8257720680169C943090716D4C168C8
:101AF000C943090712D46FF008010161042020775F
:101B00002068C0698007204602D0FFF7AEFF04E0DE
:101B100000F05FF8204600F05DF825772068016945
:101B2000C943C90617D4C168C943C90613D46FF0A5
:101B300010010161082020772068C06910F4407FFF
:101B4000204602D0FFF791FF04E000F042F8204663
:101B500000F040F8257720680169C943C90708D11A
:101B6000C168C943C90704D1891E0161204600F03C
:101B700033F820680169C943090609D4C168C9431B
:101B8000090605D46FF0800101612046FFF747FE8A
:101B900020680169C943490609D4C168C943490697
:101BA00005D46FF040010161204600F033F8206851
:101BB0000169C94389060BD4C168C943890607D4A2
:101BC0006FF0200101612046BDE87040FFF728BE9C
:101BD00070BD70477047000070B50D4C3C2200236B
:101BE000D4E90201401C41F1000106460D46C4E95A
:101BF0000201FEF797FA01211A4300D1217086F401
:101C00006160284302D16170C4E9020070BD000028
:101C1000000000207047FEE70F4810B50D49016035
:101C20001221416000214FF480228160C0E903123B
:101C3000120142610176417681760122C2760177F6
:101C40004177FEF7B3FD08B1FEF739FBBDE8104060
:101C5000FEF7DEBA006400402800002030B585B0F1
:101C6000002418480094019402940394816941F07F
:101C700010018161816901F010010491816941F0D5
:101C800020018161816901F020010491816941F0A5
:101C90000401816180690C4D00F004000490012270
:101CA0003F212846FFF70CF83F210120CDE9001025
:101CB0000220CDE9024069462846FEF71BFF05B029
:101CC00030BD000000100240000801401CB5002497
:101CD00018480094164901940160611E41604FF458
:101CE00080718160FFF746FC08B1FEF7E8FA8DF8D5
:101CF00000408DF801408DF80240002269460D48F1
:101D0000FFF704FD08B1FEF7DAFA01208DF80400B0
:101D10008DF805008DF806008DF80740002201A916
:101D20000448FFF791FC002801D0FEF7C8FA1CBD5B
:101D3000002800405000002010B586B0002418484C
:101D4000009401940294039404941449059401604E
:101D500041F27071C0E9011442F21071C0E903143C
:101D600044618461FFF792FD08B1FEF7A8FA4FF4D1
:101D70008050009069460A48FFF70CFE08B1FEF754
:101D80009EFA049404A906480594FFF74BFD002829
:101D900001D0FEF794FA06B010BD0000002C0140FF
:101DA0006400002010B586B0002417480094019408
:101DB0000294039404941349059401603C21C0E902
:101DC00001144FF4C871C0E9031480218161FFF749
:101DD0005DFD08B1FEF773FA4FF48050009069463C
:101DE0000948FFF7D7FD08B1FEF769FA049404A982
:101DF00005480594FFF716FD002801D0FEF75FFAAD
:101E000006B010BD00080040AC000020FEE7FEE771
:101E10007047010901EB810100F00F0000EB410068
:101E2000C0B27047002102E00A38C0B2491C0A283B
:101E3000FAD2090740EA116070472DE9F0410446E3
:101E40000025C07B627BA37B42E0012A16D0032AD7
:101E500014D0052A12D0072A10D0082A0ED00A2A38
:101E60000CD00C2A0AD0042A10D0062A0ED0092A37
:101E70000CD00B2A0AD0022A0DD028E01F2B0CD33D
:101E80000C2A05D101221346401C20E01E2B04D34E
:101E90000123521C1BE01C2B02D203F1010316E0AC
:101EA00011D183B29E0710D16426B3FBF6F706FB6F
:101EB000173636B94FF4C876B3FBF6F706FB17337F
:101EC0001BB91D2303E01D2B01D1032201236D1C2F
:101ED0008D42BAD3D1B2E0736173DAB2A27300F06B
:101EE0004EF82073BDE8F08170B50546FEF7EEFEB2
:101EF00004464FF47A7606E0FEF7E8FE001BB04297
:101F000001D9032070BD286840688006F4D5286890
:101F1000416841F010014160002070BD70B5054678
:101F20000068416821F010014160FEF7CFFE0446D1
:101F30004FF47A7606E0FEF7C9FE001BB04201D9E5
:101F4000032070BD286840688006F4D5002070BD6D
:101F50000068016A406A80B240EA01407047006848
:101F600081698AB2C1698BB2816989B28A4203D020
:101F7000C06961F31F40704743EA02407047F0B503
:101F80006426C1EBC1030925B700072403EB011345
:101F90000329B3FBF5F100F5FA60114401440AD2BC
:101FA000401EB0FBF6F201EB9001B0FBF7F0891A8E
:101FB0000844001D08E0B0FBF6F201EB9001B0FB15
:101FC000F7F0891A0844801CB0FBF4F104FB1100FF
:101FD000C0B2F0BD70B50D4606460024FFF784FF81
:101FE00048B93168280C08623168A8B248623046A6
:101FF000FFF794FF00B10124204670BD70B50D4677
:1020000006460024FFF770FF48B93168280C886144
:102010003168A8B2C8613046FFF780FF00B10124E3
:10202000204670BD7047FEF757BE70B594B02821AA
:102030006846FEF7BFF814210AA8FEF7BBF8002493
:102040000F94052000904FF4803001AA1094119451
:1020500012944100012582E8230002260495CDE96F
:1020600007604FF4501009906846FFF78BF808B1ED
:1020700072B6FEE70F20CDE90A064FF48060CDE985
:102080000C4002210AA80E94FEF79AFF08B172B61E
:10209000FEE74FF48070CDE90F500FA8FEF71CFF4C
:1020A000002801D072B6FEE714B070BD7047000082
:1020B0000148FFF7DBBC000064000020F0B50268B7
:1020C000164C174D174E4FF08047A04205D0B8422E
:1020D00003D0A84201D0B04203D122F070034A6875
:1020E0001A43A04205D0B84203D0A84201D0B04262
:1020F00003D122F44073CA681A434B6922F080026C
:102100001A4302608A68C2620A688262A04201D1F0
:102110000969016301214161F0BD0000002C01400B
:10212000000400400008004010B5846842EA032221
:1021300024F47F440A432243826010BD826822F067
:1021400070020A4342F007018160704710B5046ACB
:10215000036A23F001030362836923F0F00343EA77
:10216000021324F00A020A438361026210BD10B513
:10217000036A23F0100303628469036A24F4704441
:1021800044EA023223F0A00343EA011182610162B2
:1021900010BD00000148FEF70BBA00002800002027
:1021A000FEE70907090E002804DB00F1E02080F8B3
:1021B0000014704700F00F0000F1E02080F8141DBB
:1021C000704702E008C8121F08C1002AFAD1704700
:1021D0007047002001E001C1121F002AFBD17047A7
:1021E0001CB5FEF781FDFFF720FFFFF737FDFFF776
:1021F0006DFDFFF711FDFFF79FFDFFF7D3FD42488F
:10220000FFF79CFB002241494148FFF747F93F4C4B
:10221000404E00254FF4817740F2031840F2011937
:10222000E41EA07820B101281FD0022835D018E084
:1022300039A01BE0032813D122E06B46082239465F
:1022400002E06B46082249460020FEF70DF80A20FE
:10225000FEF73EFC6B46082241460020FEF704F8DC
:10226000A5706078012845D045E02DA0D0E9001088
:10227000CDE9001070780128DFD00228E1D0D9E73D
:102280006B46082249460020FDF7EEFF0A20FEF7C4
:102290001FFC6B4608223946DFE723A06B46D0E9D6
:1022A0000010CDE9001019208DF801009DF8020002
:1022B000082200F0F0008DF8020049460020FDF7EA
:1022C000D3FF0A20FEF704FC6B46082239460020A3
:1022D000FDF7CAFF0A20FEF7FBFB6B4608224146CA
:1022E0000020FDF7C1FF0A20FEF7F2FB08226B4633
:1022F0000F21B2E765702078012800D125700A20EF
:10230000FEF7E6FB8DE700006400002003000020DC
:10231000500000201000002080000000000000009D
:102320008100000000000000820A0F000000000091
:102330000000000000000000010203040607080975
:1023400000000000010203046823000800000020D0
:1023500028000000C2210008902300082800002067
:10236000D0040000D221000800000000000000009E
:10237000000000000000000000000000000000005D
:102380000100000010000000000000000024F40024
:04000005080000ED02
:00000001FF
