:020000040800F2
:100000009806002001010008A7300008FD2900081B
:10001000A53000089706000805370008000000001A
:100020000000000000000000000000000333000892
:100030005107000800000000A9300008053300083F
:100040001B0100081B0100081B0100081B01000820
:100050001B0100081B0100081B0100081B01000810
:100060001B0100086B070008710700081B0100084E
:100070001B0100081B0100081B0100081B010008F0
:100080001B0100081B0100081B0100081B010008E0
:10009000F93600081B0100081B010008770700085B
:1000A0001B0100088D3300081B0100081B0100081C
:1000B0001B0100081B0100081B0100081B010008B0
:1000C0001B0100081B0100081B0100081B010008A0
:1000D0001B0100081B0100081B0100081B01000890
:1000E0001B0100081B0100081B010008DFF80CD0F1
:1000F00000F050FA0048004795410008980600209B
:100100000648804706480047FEE7FEE7FEE7FEE7B1
:10011000FEE7FEE7FEE7FEE7FEE7FEE78B330008BB
:10012000ED0000082DE9F05F0546002092469B4651
:1001300088460646814640241BE0284641464746FD
:10014000224600F020F853465A46C01A914110D377
:1001500011461846224600F055F82D1A67EB0108A3
:100160004F4622460120002100F04CF817EB000911
:100170004E41201EA4F10104DFDC484631462A46E8
:100180004346BDE8F09F202A04DB203A21FA02F022
:100190000021704721FA02F3D040C2F120029140C1
:1001A000084319467047D2B201E000F8012B491EFE
:1001B000FBD270470022F6E710B513460A46044604
:1001C0001946FFF7F0FF204610BD421C10F8011B36
:1001D0000029FBD1801A704730B50B46014600203C
:1001E0002022012409E021FA02F59D4205D303FAF9
:1001F00002F5491B04FA02F52844151EA2F101027A
:10020000F1DC30BD202A04DB203A00FA02F10020A4
:1002100070479140C2F1200320FA03F31943904044
:1002200070472DE9FE4F804681EA0300C00F0C465F
:10023000009021F0004123F00045B8EB0200A941F5
:1002400005D24046214690461C460B46024623F006
:100250000040104347D0270DC7F30A00C3F30A51EB
:100260000290401A019040286BDAC3F3130040F467
:10027000801B0098924620B10023D2EB030A63EB67
:100280000B0B01985946C0F140025046FFF7BAFFE8
:1002900006460D4650465946019A00F08DF910EB7E
:1002A00008006141002487EA115284EAE7731A4387
:1002B00040D0009A62B3019A012A4FEA075215DC36
:1002C000001B61EB02014FF0004202EA0752CDE948
:1002D0000042001C41F5801132462B4600F08DF99A
:1002E00003B0BDE8F08F40462146F9E7001B61EB03
:1002F0000201001C41F5801300185B412018A2F593
:10030000001747EB030140EAD570B6196D4111E0C3
:100310006D084FEA360645EAC0754FEA0752001BE2
:1003200061EB0201001C41F5801149084FEA3000E1
:100330000019514132462B4603B0BDE8F04F00F0A2
:100340004DB90098012240000023D0EB020263EB7C
:10035000E073009821464FEAE074B8EB000061EBCF
:100360000401E9E783F000435BE781F0004158E7CF
:100370002DE9FE4F81EA030404F0004421F000411E
:1003800000944FF0000B23F0004350EA01045ED0CC
:1003900052EA03045BD0C3F30A54C1F30A552C4458
:1003A000A4F2F3340194A0FB0254C1F3130141F40D
:1003B0008011C3F3130343F4801301FB024400FBD9
:1003C000034E840A970A44EA815447EA8357A4FB00
:1003D000076802958D0A05FB07854FEA932C04FBFD
:1003E0000C542705029D4FEA065847EA1637B5EB2D
:1003F00008056EEB070C870E920E47EA811742EA5A
:100400008312A7FB0201B6EB0B0164EB00042B0D7A
:1004100043EA0C335E1844EB1C50DA465146E7FBC6
:100420000201C5F313044FEA0B3343EA14534FEAB6
:100430000432019C43EA0603A4F10C040294009CDC
:10044000CDE900B400F0D9F803B0BDE8F08F00208A
:100450000146F9E72DE9F04D81EA030404F0004B71
:1004600021F0004514464FF0000A23F0004150EA05
:10047000050220D054EA01021DD0C5F30A570246F6
:10048000C5F31303C1F31300C1F30A5640F48015FA
:1004900043F48013A7EB0608101BD64608F2FD387C
:1004A00073EB050002D308F1010801E092185B41EB
:1004B000B8F1000F03DA00200146BDE8F08D0020FE
:1004C0004FF48011064684460EE0171B73EB0507B8
:1004D00005D3121B63EB050306434CEA010C4908E4
:1004E0004FEA300092185B4150EA0107EDD152EA21
:1004F000030012D082EA040083EA0501084305D014
:10050000101BAB4106D20122002306E000224FF06F
:10051000004302E06FF0010253101AEB06004CEBAF
:10052000085110EB0A0041EB0B01BDE8F04D00F063
:1005300055B8C1F30A52C1F3130140F2FF3341F43D
:1005400080119A4202DA00200146704740F233439C
:100550009A42A2F2334202DC5242FFF714BEFFF786
:1005600051BE000030B5041E71F1000404DB4FF0F1
:100570000044404264EB0101141E73F1000405DBEA
:100580001C464FF00043524263EB0403994208BFFC
:10059000904230BD064C074D06E0E06840F0010394
:1005A00094E8070098471034AC42F6D3FFF7A2FD59
:1005B00080460008A0460008202A06DBCB17203A18
:1005C00041FA02F043EAE07306E041FA02F3D04058
:1005D000C2F12002914008431946704710B5141E1D
:1005E00073F1000408DA401C41F1000192185B41EC
:1005F0001A4301D120F0010010BD2DE9F04D9246C3
:100600009B4611B1B1FA81F202E0B0FA80F22032D9
:100610009046FFF7F7FD04460F4640EA0A0041EA1C
:100620000B0153465A46084313D0114653EA0100C2
:1006300019D0C8F140025046FFF7A5FD05460E4609
:10064000504659464246FFF7DDFD084305D00120DC
:1006500004E020463946BDE8F08D0020054346EA17
:10066000E0762C4337430A986305E40AA0EB0800C0
:100670000022FD0A44EA47540A3002D50020014610
:10068000E9E7010510196941DDE9084500196941EB
:10069000BDE8F04DA2E7FEE700B58BB000214001B8
:1006A00000F500500591CDE900014FF6E070CDE96D
:1006B00002010120CDE90610049108900E20099056
:1006C00069460B4800F0D2F808B100F057F8022153
:1006D000074800F055F808B100F050F8044800F061
:1006E0002AFC002801D000F049F80BB000BD000042
:1006F0006C00002070B51E461346002488B02246C8
:1007000048B10420CDE90110CDE903238DF8142070
:100710004FF6FE7506E002920091F5E7641CA4B264
:10072000AC4210D8094800F08CF90028F6D04FF4FC
:10073000FA7000F033FC06AB32466946034800F01D
:1007400031F8002800D0012008B070BD6C000020F6
:10075000704700EB811010B58030C0B202F0D4FABF
:10076000BDE81040012000F019BC082000F04ABC90
:10077000102000F047BC202000F044BC72B6FEE719
:1007800090F82020012A07D0022A05D0416A41F4BE
:100790008021416201207047006842690A4342613A
:1007A00000207047F0B590F820500468A468012D2F
:1007B00005D0022D03D0416A41F4802153E014F0AA
:1007C000406F01D1E5004BD5C4F30164022C03D97D
:1007D000416A41F4000146E00125A5401D608B6897
:1007E0004FF4C0759BB1CE6833434E6843EAC603ED
:1007F000066805EB0417F3514FF4C273076803EB67
:1008000004130E69FE50097D012905D009E00E8808
:10081000CB6843EA4653EBE70168CE5846F480764E
:10082000CE501179D2F805304FF4C67641EA032351
:10083000016806EB04168B511178D2F801204FF4B1
:10084000C47341EA0221026803EB0413D15000682B
:1008500005EB0411425842F0010242500020F0BD65
:10086000416A41F4001141620120F0BD10B590F8D9
:1008700020300268012B07D0022B05D0416A41F4D9
:1008800080214162012010BDD2F8000240F0010039
:10089000C2F80002087D00F01F0301209840D2F842
:1008A0001C328343C2F81C32CB69B3B9D2F80C3284
:1008B0008343C2F80C328C894B6864F31F434C6944
:1008C00002EBC404C4F840320C890B6864F31F4384
:1008D0004C6902EBC404C4F84432CB69012B16D135
:1008E000D2F80C320343C2F80C320C884B6864F324
:1008F0001F434C6902EBC404C4F840320C89CB6836
:1009000064F31F434C6902EBC404C4F844328B699E
:10091000002BD2F804320ED00343C2F804320B6924
:10092000002BD2F8143208D00343C2F81432096AFB
:10093000012904D008E08343EFE78343F5E7D2F8C9
:100940001C120143C2F81C12D2F8000220F0010070
:10095000C2F80002002010BD704730B590F820406A
:10096000012C05D0022C03D0416A41F480215DE0C6
:100970000468002955D02469A40754D04FF4D874D2
:10098000056804EB01142D5915F004059560056800
:100990002D594ED0ED08556005682C5904F002041D
:1009A000D4604FF4DA74056804EB01142D5905F096
:1009B0000F05156105682D59C5F307259561056873
:1009C0002C59240C54614FF4DC72046802EB0112C0
:1009D000A4581C700468A458240A5C700468A458C5
:1009E000240C9C700468A258120EDA704FF4DE7268
:1009F000046802EB0112A4581C710468A458240A6C
:100A00005C710468A458240C9C710468A258120EEE
:100A1000DA71006881B1016941F0200101610020B3
:100A200030BDE468A8E7416A41F400114162012049
:100A300030BD6D0D1560AFE7C16841F02001C160A8
:100A4000EDE70246002092F82010012901D002298A
:100A50000CD111688A68520100D501208A68120100
:100A600000D5401C8968C90000D5401C70472DE99D
:100A7000F05F0546006800244669D0F80490876856
:100A8000D0F80CB0D0F810A0D0F81880F10748D0FA
:100A9000F90714D001218160B80703D5284600F07A
:100AA00076FA0CE0780702D54FF4006407E03807C7
:100AB00002D54FF4805402E0284600F067FAF805AA
:100AC00016D529684FF480708860B80503D528468C
:100AD00000F05FFA0CE0780502D544F4005407E01A
:100AE000380502D544F4804402E0284600F050FA6C
:100AF000F80316D529684FF480308860B80303D511
:100B0000284600F048FA0CE0780302D544F400448B
:100B100007E0380302D544F4803402E0284600F0B0
:100B200039FA300707D55FEACB6004D52968102071
:100B300044F40074C86070074FF0080707D55FEAF7
:100B40000B7004D52868C760284600F059F9B00733
:100B500006D52868C068800702D0284600F052F900
:100B6000700607D55FEACA6004D52968102044F4EE
:100B700080640861B00607D55FEA0A7004D528686A
:100B80000761284600F0D4F9F00606D52868006908
:100B9000800702D0284600F0CCF9B00308D55FEA00
:100BA000C96005D5296810204860284600F0C2F9C0
:100BB000F00307D55FEA097004D528684760284626
:100BC00000F0EAF9300446D55FEA497040D5F005F7
:100BD00004D55FEAC87001D044F00104B00504D523
:100BE0005FEA887001D544F00204700504D55FEA1D
:100BF000487001D544F00404300529D518F0700F71
:100C000026D008F07000402815D006DC102809D046
:100C100020280AD0302816D10AE050280ED06028AB
:100C200011D10EE044F008040DE044F010040AE095
:100C300044F0200407E044F0400404E044F0800461
:100C400001E044F480742868816921F070018161B9
:100C5000296804204860002C05D0686A2043686237
:100C60002846FFF779FEBDE8F09F70B5040003D079
:100C700094F8200010B104E0012070BD204600F07F
:100C800081F82068016841F00101016000F0B6FAC6
:100C90000546052604E000F0B1FA401B0A2811D8E9
:100CA00020684068C007F6D02068016821F0020182
:100CB000016000F0A3FA05460BE000F09FFA401B2C
:100CC0000A2806D9606A40F40030606284F8206027
:100CD000D2E7206840688007EFD4207E0128206892
:100CE00001683DD021F080010160607E012820680C
:100CF000016838D021F040010160A07E0128206801
:100D0000016833D021F020010160E07E01282068D5
:100D100001682ED041F010010160207F0128206879
:100D2000016829D021F008010160607F0128206856
:100D3000016824D021F004010160D4E902010843D4
:100D4000D4E90412114308436168491E084321682D
:100D5000C86100206062012084F82000002070BD7E
:100D600041F08001C0E741F04001C5E741F02001BA
:100D7000CAE721F01001CFE741F00801D4E741F0C4
:100D80000401D9E710B586B00021009101910291CC
:100D900003910068174988422AD11748C16941F078
:100DA0000071C161C16901F000710491816941F074
:100DB000040181618069114C00F0040004904FF43B
:100DC000006000906946204600F028F9A1140091C7
:100DD00002210191032103916946204600F01EF98A
:100DE00000220121142000F097FC142000F086FC62
:100DF00006B010BD00640040001002400008014031
:100E00007047000010B588B0424B6A460021FFF7DA
:100E1000A4FD002816D13F4C3F48414A217801707B
:100E20003E4809294FD2DFE801F0050F161F28318F
:100E30003A4E450061780170217941706179817085
:100E4000A179C17008B010BD61780171A1784171BC
:100E5000E1788171F6E76178C171A1780172E1787A
:100E6000417221798172EDE76178C172A1780173D5
:100E7000E178417321798173E4E7C17B6170017C82
:100E8000A170417CE170807C2071DBE76178C174E6
:100E9000A1780175E178417521798175D2E7617892
:100EA000C175A1780176E1784176217981760020BB
:100EB0001070C7E760781070A0785070E07890707C
:100EC0002079D070BEE70729BCD1164960780A782E
:100ED000824210D14978A27891420CD11249E3782C
:100EE000CA789A4207D14A7823799A4203D18978FD
:100EF00062799142A6D0A178002202F09FF9A379ED
:100F000062792179E07802F087F9084901200870B8
:100F100098E7000030000020040000204C00002072
:100F200018000020060000201C0000200000002007
:100F300070477047704770B5044690F8200001284C
:100F400004D0606A40F40020606217E0022084F858
:100F500020002068016821F00101016000F04EF9D5
:100F600005460DE000F04AF9401B0A2808D9606ADE
:100F700040F400306062052084F82000012070BD3C
:100F800020684068C007EDD1606270BD704770474F
:100F900070477047704770477047000070B504464F
:100FA00000F02CF90546601C02D004480078044487
:100FB00000F024F9401BA042FAD370BD3C00002091
:100FC00070B53220FFF7EAFF0C4D0821284600F0EB
:100FD0000BF90B4C60B11021284600F005F948B11F
:100FE0002021284600F000F9002805D1032002E066
:100FF000012000E00220607170BD0000000C014083
:1010000000000020044910B50A68024202D00860BE
:10101000FFF7D6FF10BD0000140401402DE9F84F82
:10102000DFF8A491002409F1040A0AF1040B234615
:101030004FF00F080BF1040EBEE00127A7403A4025
:10104000BA4272D1DFF884C14D68A5EB0C06654544
:101050002BD00DDC032D34D005DC35B3012D19D098
:10106000022D2FD11BE0112D16D0122D2AD119E0FF
:10107000B6F5881F19D006DCB6F5803F15D0B6F559
:10108000801F1FD111E0B6F5001F0ED0B6F5041F6A
:1010900018D10AE0CB6815E0CB681B1D12E0CB68C5
:1010A00008330FE0CB680C330CE08B682BB1012BBD
:1010B0004FF0080303D0476104E0042302E0076116
:1010C00000E00023FF2A01D8064601E000F10406F3
:1010D0004FEA840501D9A5F12005376808FA05FC17
:1010E00027EA0C0703FA05F547EA050737604D685C
:1010F000ED0060D5364DAE6946F00106AE61AD69D2
:1011000024F0030605F001050095324D7719BE68FD
:10111000A5072D0F08FA05FC26EA0C06DFF8B8C073
:10112000604503D14FF0000C17E044E0DFF8ACC09D
:10113000604502D14FF0010C0FE0DFF8A4C060451C
:1011400002D14FF0020C08E0DFF898C0604502D1F0
:101150004FF0030C01E04FF0040C0CFA05FC4CEAD4
:10116000060CC7F808C04D68D9F80060ED034D467D
:1011700001D5164300E096432E604D68DAF8006012
:10118000AD03554601D5164300E096432E604D68E9
:10119000DBF80060ED025D4601D5164300E09643A2
:1011A0002E604D68DEF80060AD02754601D516432D
:1011B00000E096432E60641C0A6832FA04F57FF45E
:1011C0003CAFBDE8F88F00000004014000001110A2
:1011D000001002400000014000080140000C0140E6
:1011E00000100140001401408068084000D0012038
:1011F00070470AB1016170470904FBE70148806844
:10120000704700003C00002070B5040025D094F821
:101210003D00002520B984F83C50204600F0E6F956
:10122000242084F83D002068016821F0010101605C
:101230002068016841F4004101602068016821F4E0
:101240000041016000F012FC4D4B6168994201D8E9
:101250004C4900E04C49884201D2012070BD4B4905
:101260002268B0FBF1F1566826F03F060E43566047
:1012700062689A4206D94FF4967251434FF47A72DB
:10128000B1FBF2F12268491C166A26F03F06314391
:1012900011626168994210D84900401EB0FBF1F21A
:1012A000521CC2F30B02042A01D2042022E0B0FB3C
:1012B000F1F0401CC0F30B001CE0A268F2B301EB9C
:1012C000C10303EB0116431EB3FBF6F35B1C43F4AF
:1012D00080431B0549D092B301EBC10202EB01111F
:1012E000401EB0FBF1F0401CC0F30B0040F4804006
:1012F00040F400402168CA694CF6FF739A431043DA
:10130000C861D4E9071001432068026822F0C002D6
:1013100011430160D4E9030101432068826848F267
:10132000FF339A4311438160D4E9051001432068DB
:10133000C26822F0FF021143C16001E00EE016E036
:101340002068016841F0010101602564202084F8D3
:101350003D00256384F83E50002070BD01EB41063E
:10136000431EB3FBF6F35B1CB3E70120C2E701EBBE
:101370004101401EB0FBF1F0401CC0F30B00B7E789
:10138000A086010080841E0000093D0040420F003D
:101390002DE9F84F1F4690468A460446DDF828900E
:1013A000FFF72CFF054694F83D0020287FD1192334
:1013B000012240492046009501F000FC002876D12A
:1013C00094F83C00012872D0012084F83C00206889
:1013D0000168C90703D1016841F00101016020687B
:1013E000016821F400610160212084F83D00102093
:1013F00084F83E0000262664C4F824806785608D4A
:1014000020852D48E0622B464A465146204601F091
:101410000DFB90B9206841698069009036E02A464A
:101420004946204601F04AFC50B1206C042804D102
:101430002068016841F4007101600120BDE8F88F67
:10144000606A216800780861626A521C6262608D7D
:10145000401E6085208D401E80B2208521684B692A
:10146000DB435B070BD450B110780861606A401C05
:101470006062608D401E6085208D401E20852A465A
:101480004946204601F074FB0028CED1208D00286B
:10149000C5D154F83D0B016841F400710160202072
:1014A00004F81E09E67766770020C7E7FFE7022009
:1014B000C4E70000020010000000FFFF2DE9FF4F0D
:1014C00083B09A46DDE9119793460446DDF84080E3
:1014D000FFF794FE054694F83D0020287FD119239C
:1014E000012240492046009501F068FB002876D192
:1014F00094F83C00012872D0012084F83C00206858
:101500000168C90703D1016841F001010160206849
:10151000016821F400610160212084F83D00402031
:1015200084F83E0000262664C4F82480A4F82A909B
:10153000608D20852C48E062CDE9007553465A46FF
:101540002046049901F0C0FA70B930E02A463946C5
:10155000204601F0B3FB58B1206C042804D1206868
:10156000016841F400710160012007B0BDE8F08F0F
:10157000606A216800780861626A521C6262208D8C
:10158000401E80B22085618D491E618521684B69AE
:10159000DB435B070BD468B110780861606A401CBC
:1015A0006062208D401E2085608D401E6085208DEC
:1015B0000028CBD12A463946204601F0D9FA002826
:1015C000CAD154F83D0B016841F40071016020203C
:1015D00004F81E09E67766770020C6E7FFE70220D9
:1015E000C3E70000020010000000FFFF10B586B046
:1015F00000210091019102910391006810498842F5
:101600001BD1104CA06940F00800A061A069694698
:1016100000F0080004904FF4406000901220019008
:10162000032003900848FFF7F9FCE06940F48000CC
:10163000E061E06900F48000049006B010BD000095
:101640000058004000100240000C01400248816830
:1016500002781144816070473C000020074810B5B3
:10166000016841F010010160032000F075F80020CE
:1016700000F006F800F024F8002010BD0020024021
:1016800070B50D4D04464FF47A712878B1FBF0F037
:101690000A490968B1FBF0F000F09FFD48B9102C31
:1016A00007D200222146501E00F036F800206C6060
:1016B00070BD012070BD00003C00002048000020EB
:1016C0000C4808B5816941F001018161816901F02F
:1016D00001010091C16941F08051C161C0690649B1
:1016E00000F080500090486820F0E06040F000700A
:1016F000486008BD0010024000000140002809DBDE
:1017000000F01F02012191404009800000F1E0201B
:10171000C0F8001170470000F0B40E4B1B68C3F313
:101720000223C3F10704042C00D904241D1D072D36
:1017300001D2002300E0DB1E012606FA04F56D1E2F
:101740000D409D409E40761E164045EA0601F0BCC5
:1017500001F0ECBF0CED00E0064A00F00701106854
:101760004FF6FF03184040EA012003490843106088
:10177000704700000CED00E00000FA05014901206F
:101780000862704700000E4210B5014627A086B0DF
:101790001DC88DE81D0029A0294C00680490002078
:1017A000012922D0022939D010291CD16168226870
:1017B000D20118D5C1F38342C9031DF8020009D52F
:1017C000616804AAC1F34041515C1E4AB2FBF1F1C9
:1017D000484301E01C4948436168490203D4400082
:1017E0000321B0FBF1F006B010BD216AC1F3012264
:1017F000012A03D1890701D5D003F4E7022A05D1D4
:10180000616A890702D549F64040ECE7032AEAD12C
:1018100021688903E7D54FF22440E4E700F036F968
:101820006168C1F38131491C4900DAE7020304050C
:10183000060708090A0B0C0D0E0F1010010200001C
:101840000010024000127A0000093D002DE9F84323
:1018500004460078344FC00752D0F8690025C00014
:1018600008D4F86940F08050F861F869012500F06B
:10187000805000902D480168C90511D40168804648
:1018800041F480710160FFF7B9FC064604E0FFF700
:10189000B5FC801B642822D8D8F80000C005F6D516
:1018A000386A10F4407020D0A18801F44071814260
:1018B0001BD0386A1E49012220F440700A600022C1
:1018C0000A603862C00710D0FFF798FC064641F264
:1018D000883807E0FFF792FC811B414502D90320BD
:1018E000BDE8F883386A8007F4D5386A616820F467
:1018F0004070084338621DB1F86920F08050F861EB
:101900002078800705D57868A16820F44040084316
:1019100078602078C00605D57868E16820F48000FA
:10192000084378600020DBE70010024000700040B0
:10193000400442422DE9F0470D46040067D0DFF82D
:101940001881D8F8000000F00700A8420CD2D8F89F
:10195000001021F007012943C8F80010D8F8000052
:1019600000F00700A84252D120683C4E810712D5F2
:10197000400703D5706840F4E0607060207800078D
:1019800003D5706840F4605070607068A16820F002
:10199000F000084370602078C00727D060680128F5
:1019A00010D03168022810D0890700292FDA716819
:1019B00021F0030101437160FFF720FC074641F26B
:1019C00088390CE031688903EFE78901EDE7FFF71B
:1019D00015FCC11B494502D90320BDE8F08770689A
:1019E000616800F00C00B0EB810FF0D1D8F8001066
:1019F000404601F00701A9420BD9016821F0070117
:101A000029430160006800F00700A84201D00120CE
:101A1000E3E72078400705D57068E16820F4E060CE
:101A2000084370602078000706D57068216920F4AB
:101A3000605040EAC100706000F038F87168084AF0
:101A4000C1F30311515CC8400649086006480068AC
:101A5000FFF716FE0020C0E7002002400010024001
:101A6000684600084800002040000020044805495E
:101A700000684968044AC1F30221515CC8407047BC
:101A8000480000200010024078460008044805493C
:101A900000684968044AC1F3C221515CC8407047DC
:101AA00048000020001002407846000812A085B0CF
:101AB0000FC88DE80F0014A0144B006804905968FB
:101AC000134801F00C02042A10D0082A0ED1C1F3E9
:101AD0008342C9031DF802000AD5596804AAC1F35C
:101AE0004041515C0A4A5043B0FBF1F005B07047E9
:101AF00008494843FAE700000203040506070809FD
:101B00000A0B0C0D0E0F1010010200000010024015
:101B100000127A0000093D002DE9F84F04006FD053
:101B20002078BE4DC00747D06868C0F38100012807
:101B300007D06868C0F38100022809D16868C00333
:101B400006D52868800337D560680028E7D033E0E1
:101B50006068B0F5803F0BD010B1B0F5A02F11D068
:101B6000286820F480302860286820F4802002E073
:101B7000286840F480302860606888B1FFF73EFB39
:101B8000064609E0286840F480202860F0E7FFF767
:101B900035FB801B642873D828688003F7D50BE0D9
:101BA000FFF72CFB064604E0FFF728FB801B6428A8
:101BB000F1D828688003F7D42078DFF864828007A2
:101BC0004FF0010A4FF0000939D5686810F00C0F8A
:101BD00007D06868C0F38100022809D16868C00393
:101BE00006D42868800714D52069012808D110E0A0
:101BF0002069B0B1C8F800A0FFF700FB064605E079
:101C000007E1FFF7FBFA801B0228C4D82868800789
:101C1000F7D52868616920F0F80040EAC100286023
:101C20000DE0C8F80090FFF7E9FA064604E0FFF778
:101C3000E5FA801B022823D828688007F7D420788B
:101C400000072CD57748A169D9B1C0F800A0FFF7EB
:101C5000D5FA064604E0FFF7D1FA801B02280FD818
:101C6000686A8007F7D570484FF4FA510068B0FBF6
:101C7000F1F0009000BF0098411E0091FAD20EE0F2
:101C80007CE0C0F80090FFF7B9FA064604E0FFF7E1
:101C9000B5FA801B022871D8686A8007F7D42078CB
:101CA00040075BD5E8690027C00008D4E86940F028
:101CB0008050E861E869012700F0805000905B489F
:101CC0000168C90511D40168834641F4807101603F
:101CD000FFF794FA064604E0FFF790FA801B6428A9
:101CE0004CD8DBF80000C005F6D5E06801280AD022
:101CF00008B1052813D0286A20F001002862286A5C
:101D000020F0040002E0286A40F001002862E06848
:101D100041F2883B88B1FFF771FA064609E0286A6C
:101D200040F004002862EEE7FFF768FA811B59458E
:101D30005BD8286A8007F7D50BE0FFF75FFA064605
:101D400004E0FFF75BFA811B59454ED8286A8007EB
:101D5000F7D41FB1E86920F08050E861E069A8B3CA
:101D60006968C1F38101022946D00228484606D09D
:101D7000C8F86000FFF742FA044639E035E047460C
:101D8000C8F86000FFF73AFA064604E0FFF736FAB3
:101D9000801B022829D828688001F7D4206AB0F572
:101DA000803F05D16868A16820F40030084368606E
:101DB000D4E908010843696821F474110843686094
:101DC000C7F860A0FFF71AFA044605E023E0FFF722
:101DD00015FA001B022808D828688001F7D51AE0F8
:101DE000FFF70CFA001B022802D90320BDE8F88F88
:101DF00028688001F4D40EE00128F7D06868226AD0
:101E000000F48031914204D1616A00F4701088427C
:101E100001D00120EAE70020E8E7000000100240BE
:101E2000000042428004424248000020007000400E
:101E3000F8B505004FF0000016460C46009006D09D
:101E40002CB100226946284600F019F808B101209B
:101E5000F8BD287B2070E87BE070697B6170A97B0E
:101E6000A17056B101F02AF9E070607801F026F90E
:101E70006070A07801F022F9A0700020F8BD2DE973
:101E8000F04791460C465FEA00084AD084B3D8F880
:101E900000004068400744D4404601F0ACF94FF4DC
:101EA0006162B0FBF2F10546B0FBF2F002FB1053A9
:101EB0003C20B3FBF0F36370B5FBF2F302FB13526B
:101EC000B2FBF0F300FB1320A070182931D31820C7
:101ED000B1FBF0F6B1FBF0F200FB121020704046AF
:101EE00001F082F9411C04D0A84202D9471B02E04C
:101EF00017E04FF0FF37A6EB061000EB4000C0EBF9
:101F0000001005EBC0152946404601F0E6F940B93E
:101F1000781C01D0791900E03946404601F0C9F932
:101F200010B10120BDE8F0873146404601F0D1F8FC
:101F300000E02170B9F1000F0BD0207801F0BEF85D
:101F40002070607801F0BAF86070A07801F0B6F8FF
:101F5000A0700020E6E7000070B5040003D0607CAC
:101F6000002610B105E0012070BD2674204600F067
:101F700043F802206074204600F012F9042578BB73
:101F8000204601F0FDF858BB2068416821F00701A8
:101F90004160A06820B11748016821F0010101608B
:101FA0001448001F0168A26821F4607111430160A8
:101FB0006068411C04D10120FFF7E6FB80B1401EA0
:101FC00021688A6822F00F0242EA10428A60216882
:101FD000CA6860F30F02CA60204601F0EBF808B14E
:101FE0006574C0E7E67301206073A073607400201D
:101FF00070BD0000306C004008B500680849884298
:102000000DD1FFF7BBFB0748C16941F00061C16119
:10201000C069054900F0006000900120086008BD1B
:1020200000280040001002403C0442422DE9F041EB
:102030000D4604003BD0C5B3207C01283AD04FF0B8
:10204000010884F8108002206074E87872B301F00F
:102050002CF8E073687801F028F86073A87801F034
:1020600024F8A073C2B2617BE07B01F0F7F8207323
:102070002870204601F0BFF84FF46161B0FBF1F128
:10208000002518292DD91822B1FBF2F1A1EB01117D
:1020900001EB4101C1EB011100EBC11631462046B5
:1020A00001F01BF90427C8B90BE000E004E00120AF
:1020B000BDE8F0810220FBE7E07368786073A878E0
:1020C000CFE7204601F090F8411C0AD0B04208D278
:1020D00006490144204601F0ECF810B167742574FC
:1020E000E5E784F8118025740020E1E780510100C4
:1020F0002DE9F0410D46040024D01DB3207C0128B9
:1021000023D04FF0010884F8108002206074F2B1EF
:10211000287800F0CAFF4FF4616100FB01F668788F
:1021200000F0C3FFC0EB001006EB8006A87800F0BB
:10213000BCFF35182946204601F0CFF800260427B9
:1021400018BB10E00120BDE8F0810220FBE72978F0
:102150004FF4616041436878C0EB001001EB8000F0
:10216000A9784518E6E72068416821F0050141603B
:10217000204601F039F8411C0AD0A84208D207498C
:102180000144204601F095F810B167742674D9E730
:1021900084F8118026740020D5E7000080510100EA
:1021A00070B504000AD02068416821F00801416040
:1021B000FFF724F805464FF47A7608E0012070BD59
:1021C000FFF71CF8401BB04201D9032070BD206806
:1021D00040680007F4D5002070BD10B5401EB0F176
:1021E000807F01D3012010BD4FF0E02460610F21FA
:1021F000601701F09BFA0020A061072020610020F9
:1022000010BD70477047000070B590F83C20012A5F
:1022100026D0012580F83C50022280F83D2002683B
:102220005368946823F070060B68334353600D4B7A
:1022300002689A4208D0B2F1804F05D00A4B9A4208
:1022400002D00A4B9A4204D1496824F08003194312
:10225000916080F83D50002180F83C10084670BD28
:10226000022070BD002C0140000400400008004026
:1022700010B5040003D094F83D0010B107E0012030
:1022800010BD002084F83C00204600F01FF802201A
:1022900084F83D00211D206801F07EF8012084F8BB
:1022A000460084F83E0084F83F0084F8400084F83B
:1022B000410084F8420084F8430084F8440084F824
:1022C000450084F83D00002010BD000008B50068FE
:1022D000104A1149904211D1886940F40060886128
:1022E0008869002200F40060009002211920FFF7A5
:1022F00013FABDE808401920FFF700BA074A9042D8
:1023000007D1C86940F00400C861C86900F0040042
:10231000009008BD002C0140001002400008004061
:1023200090F83D10012901D001207047022180F86A
:102330003D100168CA6842F00102CA6000680B499A
:10234000884208D0B0F1804F05D00949884202D0B8
:102350000849884204D1816801F00701062903D0A9
:10236000016841F00101016000207047002C01402C
:10237000000400400008004070B5044690F83C009E
:10238000012817D0012584F83C50022084F83D0034
:102390002068826822F0770222F47F428260086817
:1023A000502830D00DDC20284DD005DC98B3102803
:1023B0003BD148E0022070BD302844D0402834D1C1
:1023C00039E0602828D0702806D0B0F5805F2CD086
:1023D000B0F5005F29D10AE0CB68D1E9012120687E
:1023E00001F01DF82068816841F0770109E0CB68B1
:1023F000D1E90121206801F012F82068816841F4D8
:102400008041816011E0CA684968206801F0C2F823
:102410005021206807E016E0CA684968206801F08A
:10242000CAF86021206801F004F884F83D500020CB
:1024300084F83C0070BDCA684968206801F0AAF8B9
:1024400040212068EFE7226801461046EBE770471D
:1024500070B50446006801694FF00005C94389075B
:1024600015D4C168C943890711D4E91E016101204F
:102470002077206880698007204602D0FFF7E7FFB9
:1024800004E000F0BFF8204600F04EF92577206800
:102490000169C943490717D4C168C943490713D41F
:1024A0006FF004010161022020772068806910F438
:1024B000407F204602D0FFF7CAFF04E000F0A2F8F8
:1024C000204600F031F9257720680169C9430907E2
:1024D00016D4C168C943090712D46FF0080101611D
:1024E000042020772068C0698007204602D0FFF7CB
:1024F000AEFF04E000F086F8204600F015F92577DD
:1025000020680169C943C90617D4C168C943C9060F
:1025100013D46FF010010161082020772068C06992
:1025200010F4407F204602D0FFF791FF04E000F056
:1025300069F8204600F0F8F8257720680169C9435A
:10254000C90708D1C168C943C90704D1891E0161FF
:10255000204600F073F920680169C943090609D4CF
:10256000C168C943090605D46FF0800101612046A6
:10257000FFF747FE20680169C943490609D4C168CD
:10258000C943490605D46FF040010161204600F0BF
:1025900073F920680169C94389060BD4C168C9432E
:1025A000890607D46FF0200101612046BDE8704024
:1025B000FFF728BE70BD000000B585B00021009176
:1025C00001910291039100680B49884212D10B4896
:1025D000816941F0080181618069694600F0080065
:1025E00004904FF400700090022001900390044882
:1025F000FEF714FD05B000BD0008004000100240C9
:10260000000C0140704770B5044690F83C000D4640
:1026100001280AD0012084F83C0042B1042A18D0D5
:10262000082A2AD00C2A4DD139E0022070BD20683A
:1026300000F008FF2068816941F00801816120688D
:10264000816921F004018161206881692A6911434F
:1026500011E0206800F022FF2068816941F40061E8
:1026600081612068816921F48061816120688169CC
:102670002A6941EA0221816124E0206800F03CFFE0
:102680002068C16941F00801C1612068C16921F079
:102690000401C1612068C1692A69114311E0206801
:1026A00000F056FF2068C16941F40061C1612068F3
:1026B000C16921F48061C1612068C1692A6941EA68
:1026C0000221C161002084F83C0070BD10B50400F7
:1026D00003D094F83D0010B107E0012010BD0020A8
:1026E00084F83C00204600F01EF8022084F83D00EB
:1026F000211D206800F050FE012084F8460084F877
:102700003E0084F83F0084F8400084F8410084F8DB
:10271000420084F8430084F8440084F8450084F8BB
:102720003D00002010BD70477047000010B5044602
:1027300049B104290AD008290BD094F84100012896
:102740000AD0012010BD94F83E00F8E794F83F004D
:10275000F5E794F84000F2E7022041B3042929D0BC
:1027600008292AD084F841000122206800F04AFE9E
:1027700013492068884203D1426C42F4004242640B
:102780002068884208D0B0F1804F05D00D498842BA
:1027900002D00D49884204D1816801F00701062961
:1027A00003D0016841F001010160002010BD84F8F0
:1027B0003E00D9E784F83F00D6E784F84000D3E72D
:1027C000002C0140000400400008004030B50446E1
:1027D0000D460068002200F015FE174A41F2111163
:1027E00020688B10904209D1026A0A4206D1026A1F
:1027F0001A4203D1426C22F4004242642068026A09
:102800000A4206D1016A194203D1016821F001018F
:10281000016001203DB1042D08D0082D09D084F8B5
:102820004100002030BD84F83E00FAE784F83F0004
:10283000F7E784F84000F4E7002C014070B50D4C38
:102840003C220023D4E90A01401C41F10001064664
:102850000D46C4E90A01FDF765FC01211A4300D1C8
:10286000617086F46160284302D1A170C4E90A0056
:1028700070BD000000000020704770B5040004D057
:1028800094F83D00002510B106E0012070BD84F8E9
:102890003C50204600F022F8242084F83D002068B7
:1028A000C16821F40051C160204600F097FE206805
:1028B000016921F4904101612068416921F02A01F8
:1028C00041612068C16841F40051C1602564202045
:1028D00084F83D0084F83E00002070BD30B585B01E
:1028E00000240094019402940394006814498842DF
:1028F00024D11448816941F480418161816901F4E6
:1029000080410491816941F00401816180690E4D2B
:1029100000F0040004904FF4007000900220019039
:102920000320039069462846FEF778FB2815CDE979
:102930000004694628460294FEF770FB05B030BDDE
:102940000038014000100240000801402DE9F84322
:10295000044690F83D001F4615460E4620284BD1F0
:10296000C6B1BDB194F83C00012845D0012084F8DF
:102970003C004FF00008C4F84080212084F83D005E
:10298000FEF73CFCA5848146E584A068B0F5805F35
:1029900003D004E00120BDE8F883206920B135466A
:1029A000002684F83C800EE00025FAE780212046CE
:1029B00000F070FEA0B9ADB115F8010B21684860B8
:1029C000E08C401EE084E08C4B464FF00002009704
:1029D0000028EBD14FF04001204600F05BFE30B103
:1029E0000320D8E736F8020BC0F30800E6E7202002
:1029F00084F83D000020CEE70220CCE7FEE7016826
:102A00004A69D24352050FD46FF480624A610021B3
:102A100040F8301F202242738173026942F00402A1
:102A2000026101730120704700207047F8B5044629
:102A3000C06A1E460D461746082807D0012805D053
:102A400010F5803F02D0206B122804D12068016865
:102A500041F480710160134600224FF001112046BD
:102A6000009600F0ABF840B120680068C00502D5C0
:102A70004FF4007020640320F8BD2069B0F5804F4A
:102A80000ED00620216800EAD51040F0F000086161
:102A900033463A460B49204600F0C4F878B902E0C4
:102AA00005F0FE0000E0E8B2216808610549334600
:102AB0003A46891F204600F0B5F80028DCD00120F6
:102AC000F8BD0000080001002DE9F8430446006845
:102AD0000D46DDE9089701689846164641F4807175
:102AE00001604B4600224FF001112046009700F094
:102AF00065F848B120680068C00502D54FF4007041
:102B000020640320BDE8F883216805F0FE00086119
:102B10003B464A461549204600F084F888B92068AB
:102B20004169806900903A464946204600F0C6F85F
:102B300048B1206C042804D12068016841F4007178
:102B400001600120DEE7F5B2B8F1010F09D021687C
:102B5000300A08613A464946204600F0AFF800289E
:102B6000E7D1206805610020CCE7000002000100E9
:102B700070B516460D4604460DE02046FFF73FFFB0
:102B800008B1012070BD681C05D0FEF737FB801B23
:102B9000A84207D835B120684069C0434007ECD44B
:102BA000002070BD002044F8300F20216173A07315
:102BB000216941F0200121612073E2E72DE9F0470E
:102BC0001D4690460E460446C1F30747DDF82090A7
:102BD00008E0681C06D0FEF711FBA0EB0900A84234
:102BE0000FD875B12068012F18D0806926EA00003F
:102BF0000004000C14D000204045EAD00020BDE8BD
:102C0000F087002044F8300F20216173A073216900
:102C100041F02001216120730120F0E74069E5E7E0
:102C20000120E9E72DE9F047984615460E4604468F
:102C30004FF000094FF0200AC1F3074723E0206856
:102C40004069C043400515D42068016841F4007113
:102C5000016021686FF480604861C4F8309084F8A6
:102C60003DA084F83E90216C41F00401216484F879
:102C70003C901EE0681C06D0FEF7C0FAA0EB0800EE
:102C8000A8420AD84DB12068012F15D0806926EAE4
:102C900000000004000C0DD0D1E744F8309F84F808
:102CA0000DA084F80E90216941F02001216184F883
:102CB0000C900120BDE8F0874069E8E770B5164642
:102CC0000D4604460DE02046FFF799FE08B10120AD
:102CD00070BD681C05D0FEF791FA801BA84207D88A
:102CE00035B120684069C0430006ECD4002070BDB7
:102CF000002044F8300F20216173A073216941F056
:102D0000200121612073E2E71CB507A102230968B5
:102D100001918DF805004FF47A70009001AA7C2192
:102D20000248FEF735FB1CBD800000009400002027
:102D30001CB507A10223096801918DF805004FF425
:102D40007A70009001AA7C210248FEF721FB1CBD8D
:102D5000C000000094000020104810B50E4901602A
:102D60001221416000214FF480228160C0E90312EA
:102D7000120142610176417681760122C2760177A5
:102D80004177FDF772FF08B1FDF7F8FCBDE8104090
:102D90000120FDF781BC0000006400406C000020B1
:102DA0002DE9F04F85B000243E4800940194029430
:102DB0000394816941F010018161816901F0100182
:102DC0000491816941F020018161816901F0200154
:102DD0000491816941F008018161816901F0080174
:102DE0000491816941F0040181618069DFF8B89044
:102DF00000F004004FF40055049000222946484694
:102E0000FEF7F7F9DFF8A4A0AE00002231465046E5
:102E1000FEF7EFF9DFF898B04FF4807801224146D1
:102E20005846FEF7E6F90095022701250397CDE9FC
:102E3000015469464846FEF7F1F80320CDE9024007
:102E4000CDE9006569465046FEF7E8F83820009065
:102E50001848CDE9010569465846FEF7DFF8CDE987
:102E60000085CDE9025769465846FEF7D7F800229B
:102E700003210920FEF750FC0920FEF73FFC002249
:102E800003210A20FEF748FC0A20FEF737FC002247
:102E900003211720FEF740FC1720FEF72FFC05B09A
:102EA000BDE8F08F00100240001001400008014012
:102EB000000C0140000021100D4810B50B490160C5
:102EC0000C494FF48042C0E901120021C0E903120D
:102ED00041618161C1610162FEF796F9002803D06A
:102EE000BDE81040FDF74ABC10BD0000005800408E
:102EF00094000020801A06001CB500241848009495
:102F0000164901940160611E41604FF48071816037
:102F1000FFF722F808B1FDF731FC8DF800408DF87D
:102F200001408DF80240002269460D48FFF7E0F8A5
:102F300008B1FDF723FC01208DF804008DF8050091
:102F40008DF806008DF80740002201A90448FFF71C
:102F50006DF8002801D0FDF711FC1CBD00280040D1
:102F6000E800002010B586B00024184800940194B1
:102F700002940394049414490594016041F2707121
:102F8000C0E9011442F21071C0E903144461846184
:102F9000FFF76EF908B1FDF7F1FB4FF48050009098
:102FA00069460A48FFF7E8F908B1FDF7E7FB049422
:102FB00004A906480594FFF727F9002801D0FDF77A
:102FC000DDFB06B010BD0000002C0140FC0000201D
:102FD00010B58EB000240794089409940A940B94B9
:102FE0001C2168460C94FDF7E5F81F481D49016057
:102FF0003C21C0E901144FF4C871C0E903148021D9
:103000008161FFF735F908B1FDF7B8FB4FF4805047
:10301000079007A91448FFF7AFF908B1FDF7AEFB19
:103020001148FFF753FB08B1FDF7A8FB0B940BA960
:103030000D480C94FFF7E8F808B1FDF79FFB6020FE
:103040000090C820CDE901040C226946064804948A
:10305000FFF7D9FA08B1FDF791FB0348FFF7ACFA87
:103060000EB010BD00080040440100200C4810B50F
:103070000A4901604FF416514160002181600C2221
:10308000C160C0E904128161C161FFF7F6FB00284D
:1030900003D0BDE81040FDF771BB10BD0038014002
:1030A0008C010020FEE7FEE77047010901EB81017A
:1030B00000F00F0000EB4100C0B27047002102E0B9
:1030C0000A38C0B2491C0A28FAD2090740EA11603E
:1030D00070472DE9F04104460025C07B627BA37B4D
:1030E00042E0012A16D0032A14D0052A12D0072A5A
:1030F00010D0082A0ED00A2A0CD00C2A0AD0042A92
:1031000010D0062A0ED0092A0CD00B2A0AD0022A87
:103110000DD028E01F2B0CD30C2A05D10122134619
:10312000401C20E01E2B04D30123521C1BE01C2B4F
:1031300002D203F1010316E011D183B29E0710D130
:103140006426B3FBF6F706FB173636B94FF4C8769C
:10315000B3FBF6F706FB17331BB91D2303E01D2B4A
:1031600001D1032201236D1C8D42BAD3D1B2E07389
:103170006173DAB2A27300F071F82073BDE8F081D8
:1031800070B50546FEF73AF804464FF47A7606E045
:10319000FEF734F8001BB04201D9032070BD286847
:1031A00040688006F4D52868416841F0100141600C
:1031B000002070BD70B505460068416821F010011F
:1031C0004160FEF71BF804464FF47A7606E0FEF7FE
:1031D00015F8001BB04201D9032070BD2868406873
:1031E0008006F4D5002070BD0068016A406A80B294
:1031F00040EA01407047006881698AB2C1698BB2B8
:10320000816989B28A4203D0C06961F31F40704767
:1032100043EA02407047000008B58DF802208DF89F
:1032200001108DF800308DF8030000226946024835
:10323000FEF7FCFE08BD0000E800002008B58DF890
:1032400000008DF801108DF8022000226946024826
:10325000FEF74EFF08BD0000E8000020F0B5642630
:10326000C1EBC1030925B700072403EB01130329B0
:10327000B3FBF5F100F5FA60114401440AD2401E97
:10328000B0FBF6F201EB9001B0FBF7F0891A0844AD
:10329000001D08E0B0FBF6F201EB9001B0FBF7F087
:1032A000891A0844801CB0FBF4F104FB1100C0B281
:1032B000F0BD70B50D4606460024FFF761FF48B922
:1032C0003168280C08623168A8B248623046FFF7BE
:1032D00071FF00B10124204670BD70B50D46064651
:1032E0000024FFF74DFF48B93168280C8861316828
:1032F000A8B2C8613046FFF75DFF00B10124204647
:1033000070BD7047FEF7A2B970B594B02821684629
:10331000FCF750FF14210AA8FCF74CFF00240F947F
:10332000052000904FF4803001AA1094119412945B
:103330004100012582E8230002260495CDE90760BB
:103340004FF4501009906846FEF7E6FB08B172B6DC
:10335000FEE70F20CDE90A064FF48060CDE90C406E
:1033600002210AA80E94FEF7E5FA08B172B6FEE74C
:103370004FF48070CDE90F500FA8FEF767FA0028D0
:1033800001D072B6FEE714B070BD70470148FFF778
:103390005FB80000FC000020F0B50268164C174D25
:1033A000174E4FF08047A04205D0B84203D0A84244
:1033B00001D0B04203D122F070034A681A43A04200
:1033C00005D0B84203D0A84201D0B04203D122F4C4
:1033D0004073CA681A434B6922F080021A430260A4
:1033E0008A68C2620A688262A04201D109690163E7
:1033F00001214161F0BD0000002C014000040040AB
:103400000008004010B501F01F010123046A8B4041
:103410009C430462036A8A401343036210BD10B5E3
:10342000846842EA032224F47F440A4322438260F0
:1034300010BD826822F070020A4342F007018160E9
:103440007047000030B5026A22F001020262036A8E
:103450004268846924F073050C682C4323F002054C
:103460008B682B430C4DA84206D123F00805CB688E
:1034700043EA050323F0040307D14D6922F44072A7
:1034800045EA02058A6942EA0502426084614968A8
:103490004163036230BD0000002C014030B5026A78
:1034A00022F010020262026A436884690D6824F403
:1034B000E64444EA05248D6822F0200242EA05121F
:1034C0000C4DA84206D1CD6822F0800242EA0512D6
:1034D00022F0400207D14D6923F4406343EA85039B
:1034E0008D6943EA850343608461496881630262B0
:1034F00030BD0000002C014030B5026A22F4807219
:103500000262036A4268C46923F4007324F07305FD
:103510000C682C438D6843EA05230C4DA84206D164
:10352000CD6823F4006343EA052323F4806307D1C5
:103530004D6922F4405242EA05128D6942EA0512B1
:103540004260C4614968C163036230BD002C014020
:1035500030B5026A22F480520262036A4268C4698A
:103560000D6824F4E64444EA05248D6823F40053EE
:1035700043EA0533064DA84204D14D6922F4804246
:1035800042EA85124260C46149680164036230BD49
:10359000002C014010B5046A036A23F001030362A2
:1035A000836923F0F00343EA021324F00A020A437A
:1035B0008361026210BD10B5036A23F01003036239
:1035C0008469036A24F4704444EA023223F0A003BD
:1035D00043EA01118261016210BD000070B504462A
:1035E00000680169E26821F4405111430161A1685A
:1035F00020690143606901432068C26841F20C639D
:103600009A430A43C26020684169A26921F440716B
:10361000114341611E492068884202D1FEF736FA03
:1036200001E0FEF723FA00EBC00101EB0011606836
:1036300064228000B1FBF0F3B3FBF2F36FF01806E5
:103640007343B1FBF0F5B1FBF0F605EB83053223D4
:1036500003EB0515B5FBF2F5B6FBF2F605F0F00548
:1036600005EB0615B1FBF0F6B1FBF0F0B0FBF2F0A4
:103670006FF01801484306EB800003EB0010B0FB2D
:10368000F2F0216800F00F002844886070BD00004F
:10369000003801402DE9F0411E4617468846044691
:1036A000069D1CE0681C1AD025B1FDF7A7FD801B04
:1036B000A84214D92068C16821F4D071C160206883
:1036C000416921F001014161202084F83D0084F826
:1036D0003E00002084F83C000320BDE8F081206813
:1036E000016838EA010004D00020B842DAD0002096
:1036F000F3E70120F9E700000148FDF7B8B9000041
:103700006C000020FEE7000037B514460846064B63
:103710006A46214600F0ECF804466946002000F0B5
:103720007EFC20463EBD00001F4000080907090E30
:10373000002804DB00F1E02080F80014704700F05E
:103740000F0000F1E02080F8141D704702E008C867
:10375000121F08C1002AFAD170477047002001E00B
:1037600001C1121F002AFBD1704700002DE9FF5F45
:1037700082B00021DDE90430020DDDF840B00343E2
:1037800018D044F61050A2F2FF324243151411989B
:1037900001281FD0A5EB0B00401C5FEA000A4FF088
:1037A00000064E4FDFF83891B046504615D5CAF1A5
:1037B000000413E0119801244AA3012801D16FEA03
:1037C0000B010298119AC0E90031C0E9024206B02B
:1037D000BDE8F09FCBF10000DFE704460021404A3E
:1037E000491842EB0450CDE9001012E0E00707D081
:1037F00032463B4640464946FCF7BAFD804689467C
:1038000032463B4610461946FCF7B2FD06460F46C7
:103810006410002CEAD1DDE90401DDE90023BAF1EE
:10382000000F06DAFCF7A4FD42464B46FCF7A0FD6C
:1038300005E0FCF70FFE42464B46FCF70BFE044644
:103840000E460022284BFCF78DFE03D84FF0FF30C8
:10385000014607E00022254B20463146FCF7E1FCFB
:10386000FCF767FE102409E0002C0ADB0A22002383
:10387000FCF758FC039B30321A55641E50EA0102D3
:10388000F2D1641C039AC4F111031444119A012A61
:1038900003D0012208430DD10AE0084304D00020E0
:1038A0004FF0110B119072E7A3EB0B056D1E0DE0AD
:1038B0005B4504DD4FF0000205F1010504E003DA89
:1038C0004FF00002A5F10105002AECD002981199F1
:1038D000C0E90231C0E9004579E70000000014406A
:1038E0000000F03F300000000000F0430000E03F27
:1038F0002DE9FF4F95B09B468946064600250FE20D
:10390000252877D100242746F84A0121059400E0B4
:10391000044316F8013F203B01FA03F01042F7D1AF
:1039200030782A2811D06FF02F033078A0F13002C0
:10393000092A16D8059A44F0020402EB820203EB2E
:1039400042021044761C0590EFE759F8042B0592CB
:10395000002A03DA504244F40054059044F0020473
:10396000761C30782E2816D116F8010F44F0040486
:103970002A280DD06FF02F023078A0F13003092BE8
:1039800009D807EB870302EB4303C718761CF3E75C
:1039900059F8047B761C30786C280FD006DC4C2854
:1039A00017D068280DD06A2814D104E0742810D0EC
:1039B0007A280FD10DE044F400140AE044F4801496
:1039C00001E044F440147278824202D104F580147C
:1039D000761C761C307866280BD013DC582877D0FC
:1039E00009DC002875D04528F6D04628F4D04728B1
:1039F0001AD19DE118E0632835D0642879D0652874
:103A000012D195E1702873D008DC6728F1D06928BD
:103A10006FD06E280DD06F2806D1B5E073282CD05A
:103A2000752875D0782874D05A46179990476D1C20
:103A300075E1C4F30250022809D003280DD0D9F84B
:103A4000001004280DD00D6009F1040967E1D9F8D0
:103A50000010EA17C1E90052F6E7D9F800100D800E
:103A6000F2E70D70F0E719F8041B8DF80010002044
:103A70008DF80100EA46012003E059F804AB4FF04D
:103A8000FF3061074FF0000102D40DE008F10101A1
:103A90008846B9420FDA8045F8DB1AF80810002989
:103AA000F4D108E008F1010188468142FADB1AF8F6
:103AB00008100029F6D105985B46A0EB08072146BF
:103AC0003846179A00F094FA284400EB080507E0FE
:103AD0004DE029E10DE01AF8010B5A46179990477D
:103AE000B8F10108F7D25B4621463846179A13E130
:103AF00042E00A220092C4F302524FF0000A022A66
:103B000008D059F804CB032A4FEAEC710AD00DE033
:103B100029E02AE009F1070121F00702F2E802C1D9
:103B2000914609E00FFA8CFC4FEAEC71042A03D1AC
:103B30004FFA8CFC4FEAEC71002907DA0A460021A3
:103B4000DCF1000C61EB02012D2202E0220504D51C
:103B50002B228DF80420012203E0E20701D020226D
:103B6000F7E7904659E00A2102E010220DE010210B
:103B70004FF0000A00910BE010224FF0000A44F0D1
:103B800004040827009203E008224FF0000A009284
:103B9000C4F30252022A05D059F804CB0021032AAB
:103BA00008D009E009F1070121F00702F2E802C19B
:103BB000914605E01FFA8CFC042A01D10CF0FF0CA1
:103BC0004FF00008220728D5702806D0009B83F00C
:103BD000100353EA0A0305D00EE040228DF80420BA
:103BE000012208E05CEA010206D030228DF80420B0
:103BF0008DF8050002229046009B83F0080353EAEB
:103C00000A030AD15CEA010201D1620705D530221C
:103C10008DF804204FF001087F1E582804D034A0EE
:103C200003900EA802900DE036A0F9E753466046D7
:103C3000009AFCF777FA84460398825C0298401E4B
:103C4000029002705CEA0100F0D1029806A9081AFD
:103C500000F1200A600702D524F4803400E0012737
:103C6000574502DDA7EB0A0000E0002000EB0A0147
:103C7000009005984144401A0590E00306D45B4645
:103C80002146179A059800F0B3F90544002706E08D
:103C900001A85A46C05D179990476D1C7F1C474587
:103CA000F6DBE0030CD55B462146179A059800F039
:103CB0009FF9054404E030205A46179990476D1C3F
:103CC0000099481E00900029F5DC08E0029802994E
:103CD0005A460078491C0291179990476D1CBAF119
:103CE0000001AAF1010AF1DC65E1000009280100E8
:103CF0003031323334353637383961626364656662
:103D00000000000030313233343536373839414223
:103D1000434445460000000000F058F90544761C75
:103D2000307800287FF4ECAD19B02846BDE8F08F5C
:103D3000620700D4062709F1070222F0070CFCE80D
:103D40000223E14603F000485FEA080C02D00FF2BC
:103D5000702C0DE05FEA045C02D50FF2682C07E0DE
:103D60005FEAC47C02D00FF2602C01E0AFF2700C6D
:103D70004FF0FF3823F00043CDF850C065280CD039
:103D800006DC452809D046281DD047283DD13DE016
:103D9000662818D067287ED138E00021112F01DB7A
:103DA000112000E0781CCDE9000106A90EA8FFF75C
:103DB000DDFCDDE90F010E9A03910021009207F16D
:103DC000010A04914DE04FF000400097CDE9011049
:103DD00006A90EA8FFF7CAFCDDE90F0203920E9BAD
:103DE00011990022DDF80CA00093049211B9791CFE
:103DF00000EB010AB7EB0A0004D4C0F1FF3007F171
:103E0000010A0490AAEB0700019044E0012F00DAB8
:103E100001270021112F01DD112000E03846CDE9F6
:103E2000000106A90EA8FFF7A1FCDDE90F010E9A1B
:103E30000391002104910092BA4621070CD4039902
:103E4000514500DA8A46BAF1010F05DD009AAAF160
:103E50000101515C302908D0B84202DA10F1040F98
:103E600006DA0121CDE9011015E0AAF10101E9E727
:103E7000002805DC049901440491AAEB000102E04A
:103E8000411C514500DD8A460499401A401C0190AE
:103E90004FF000400290200704D40198504501DB08
:103EA000CDF8048000208DF84F0002980DF14F07E7
:103EB000B0F1004F25D02B200E9002984FF0020851
:103EC00000280CDA404202902D200E9007E00A21D3
:103ED0000298FCF781F93031029007F8011DB8F122
:103EE0000001A8F10108F2DC02980028EFD1791E48
:103EF0000E980870307800F0200040F0450007F878
:103F0000020D12A8C01B00F107081498007800B138
:103F1000012000EB0A01019801EBE0710598414492
:103F2000401A401E0590E00306D45B462146179ACE
:103F3000059800F05DF805441498007818B15A46C9
:103F4000179990476D1CE00324D55B462146179ACC
:103F5000059800F04DF805441CE00498002807DBA4
:103F6000DDE90301884203DD0098405C179901E018
:103F7000179930205A469047049805F10105401CD6
:103F800004900198401E019004D12E205A461799A2
:103F900090476D1CBAF10001AAF1010ADDDC05E0D1
:103FA00017F8010B5A46179990476D1CB8F100019C
:103FB000A8F10108F4DC5B462146179A0598ABE6A8
:103FC0002D0000002B000000200000002DE9F04132
:103FD000044600251E461746880404D405E03946E9
:103FE0002020B0476D1C641EF9D52846BDE8F0813D
:103FF0002DE9F041044600251E469046C80301D530
:10400000302700E02027880404D505E041463846E3
:10401000B0476D1C641EF9D52846BDE8F0810A68DA
:10402000531C0B60107070472DE9F0410E4C064692
:10403000154620780F46B04205D16078B84202D1CB
:10404000A078A8420ED03146042000F0FDFA39468F
:10405000032000F0F9FA2946022000F0F5FA267054
:104060006770A570BDE8F0813800002010B52820E9
:10407000FEF74AFE0520FCF791FF2820FEF744FEDC
:104080000520FCF78BFF2820FEF73EFE0520FCF7FD
:1040900085FF0C20FEF738FE0520FCF77FFF01208E
:1040A000FEF732FE0A20FCF779FF0620FEF72CFE11
:1040B0000520FCF773FF0021084600F0C5FA222115
:1040C000012000F0C1FA0021022000F0BDFA002119
:1040D000032000F0B9FA0021042000F0B5FA002115
:1040E000052000F0B1FA0A20FCF758FFFF21062056
:1040F00000F0AAFA0021072000F0A6FAFF2108200C
:1041000000F0A2FABDE810400A20FCF747BF00000B
:104110000FB42DE9F0470E46044607460BAA1C488B
:104120000A99FFF7F1FA1A48FCF74FF81FFA80F9DD
:1041300031462046FCF70DFB0025DFF8548016E0E1
:10414000012E12D818F805000A2819D00F2C06D90C
:10415000761CF6B23C4631463846FCF7FAFA641C47
:10416000E4B218F80500FEF7E3FD6D1CADB24D4555
:10417000E6D30120FCF712FFBDE8F0075DF814FB61
:10418000761CF6B23C4631463846FCF7E2FAECE7DC
:10419000D00100204FF0000B86B001265D465C4642
:1041A000CDF810B0FDF75AFAFFF7AEF8FEF7F8FDBC
:1041B000FEF7A2FEFEF75AFFFEF7CEFDFEF7D2FE97
:1041C000FEF77AFEFEF704FFFFF750FF00F00CFA4F
:1041D000E048FEF7A5F8642100220846FFF724FF17
:1041E000DD483346007808B1DCA200E0DFA2002100
:1041F0000120FFF78DFFD84F03200C3F002278707D
:10420000A7F10E01DC48FDF73AFEA7F10E004FF0D2
:10421000010A40784FF000090290CF4F0C3F7878A8
:1042200030B1012804D0022864D0032871D17DE088
:10423000DFF8488398F80100F8B14246012815D00C
:10424000917898F80300814208D9C34AA2F11A0272
:10425000127882420AD38A420FD307E014D2BE4AB0
:104260001A3A1278824208D28A4206D300210320E9
:1042700000F0D0F987F802A00AE00121032000F045
:10428000C9F987F8029003E00021032000F0C2F989
:1042900098F8180050B1012801D0002D06DC00214B
:1042A000062000F0B7F987F801A005E001210620FB
:1042B00000F0B0F987F80190B8F8040060B1002C64
:1042C0000ADC0021042000F0A5F90021052000F0FF
:1042D000A1F987F803A009E00121042000F09AF970
:1042E0000121052000F096F987F8039098F8000066
:1042F00078B121E098482038C07858B100224FF4B6
:1043000080719F48FCF775FF0C219E48FEF70EFA5E
:1043100012E01CE0012211029948FCF76AFF0C210F
:104320009848FEF753FA0498787005E093480078AF
:10433000012801D187F80190DFF81C82A8F120083C
:1043400098F80500012804D002281FD107E00320B7
:10435000EAE7761CF6B2062E1BD9012619E07E4844
:10436000304410F8011C41B1494600F8019C032E6D
:10437000C9B206D8F022304606E0514600F801AC3A
:10438000F5E7F01EC0B2F12200F016F998F805002A
:1043900070B171483346304410F8010C08B16FA277
:1043A00000E079A200210120FFF7B2FE88F8059015
:1043B00098F80400072803D0414609282AD031E0A4
:1043C00075A0D0E90010CDE9001038788DF8010013
:1043D00078788DF80200B8788DF80300F8788DF8B9
:1043E00004005D48807890B187F802906B460822FF
:1043F00001210020FCF77EF988F8049038784946BE
:10440000401C40B2387064280CDD39700AE087F82F
:1044100002A0EBE781F803A078780490022078707E
:1044200088F804904C4808380178012908D0787839
:1044300050B1012808D0022809D003280BD00FE082
:1044400042788178C07809E00022642101E064228A
:104450000021002002E0642100220846FFF7E4FD6D
:1044600098F80200474601281DD14448017F0129E0
:104470000AD1017E022907D16D1EFA68C5EB05112C
:10448000B2EB810F00DD458B8179012909D180884C
:1044900038B1641E3A69C4EB0411B2EB810F00DD40
:1044A000044687F802907878012819D13348017FB3
:1044B00039B9017E022904D1F9686D1E8D4200DAF6
:1044C000458B817931B9808820B13969641E8C426D
:1044D00000DA0446F87808B1401EF87087F80190B9
:1044E0003221BBFBF1F201FB12B050BB1A49002292
:1044F0001A392148FDF7C3FC17490022091F1E483D
:10450000FDF796FCDFF850800299A8F11A0898F898
:104510000100884202D13978012912D10E4998F858
:104520000020091F8B784F7800970390CDE9013266
:10453000CB7801211AA20846FFF7EAFD98F801009E
:1045400002900BF1010000F0FF0B0A20FCF726FDA2
:1045500063E60000FC0000202000002072656C6112
:1045600079202564206F66662000000072656C610A
:1045700079202564206F6E00E80000204C000020A8
:10458000000C01404401002072656C6179202564B3
:10459000206F6E20000000000700000000000000F7
:1045A0003230253032642D25642D25642025643A6F
:1045B000253032640000000008B58DF800008DF849
:1045C00001108DF802200122D1030548FCF711FEED
:1045D0004FF47A73032269460248FEF7B7F908BD23
:1045E000000801408C01002008B55A208DF8000019
:1045F0000122D1030548FCF7FCFD4FF47A73012238
:1046000069460348FEF7A2F908BD00000008014012
:104610008C0100200B4A10B5024412F8013C8B4279
:104620000AD002F8011C032803D9C01EC0B2F1222F
:1046300000E0F022FFF7C0FFBDE810406420FCF767
:10464000ADBC00002000002013B584B00A24012373
:1046500005A98DE81A000246C0210248FCF72EFF8A
:1046600006B010BD94000020000000000000000013
:104670000102030406070809000000000102030408
:10468000A0460008000000204C0000004C37000845
:10469000EC4600084C0000204C0600005C37000887
:1046A000000000000000000000000000FFFFFFFF0E
:1046B000FFFFFFFF000000000000000000000000FE
:1046C00001010101010100000000000000000000E4
:1046D00000000000000000000000000001000000D9
:0C46E00010000000000000000024F400A6
:04000005080000ED02
:00000001FF
