:020000040800F2
:10000000A80600200101000887330008AD2C000875
:1000100085330008F5060008E539000800000000F7
:10002000000000000000000000000000E3350008B0
:10003000DD0900080000000089330008E5350008EC
:100040001B0100081B0100081B0100081B01000820
:100050001B0100081B0100081B0100081B01000810
:100060001B010008F7090008FD0900081B01000832
:100070001B0100081B0100081B0100081B010008F0
:100080001B0100081B0100081B0100081B010008E0
:10009000D93900081B0100081B010008030A0008E9
:1000A0001B0100086D3600081B0100081B01000839
:1000B0001B0100081B0100081B0100081B010008B0
:1000C0001B0100081B0100081B0100081B010008A0
:1000D0001B0100081B0100081B0100081B01000890
:1000E0001B0100081B0100081B010008DFF80CD0F1
:1000F00000F0DCFA00480047C1440008A8060020D0
:100100000648804706480047FEE7FEE7FEE7FEE7B1
:10011000FEE7FEE7FEE7FEE7FEE7FEE76B360008D8
:10012000ED0000082DE9F05F0546002092469B4651
:1001300088460646814640241BE0284641464746FD
:10014000224600F020F853465A46C01A914110D377
:1001500011461846224600F0F7F82D1A67EB010801
:100160004F4622460120002100F0EEF817EB00096F
:100170004E41201EA4F10104DFDC484631462A46E8
:100180004346BDE8F09F202A04DB203A21FA02F022
:100190000021704721FA02F3D040C2F120029140C1
:1001A000084319467047D2B201E000F8012B491EFE
:1001B000FBD270470022F6E710B513460A46044604
:1001C0001946FFF7F0FF204610BD421C10F8011B36
:1001D0000029FBD1801A70472DE9FE4F81EA030404
:1001E00004F0004421F0004100944FF0000B23F094
:1001F000004350EA01045ED052EA03045BD0C3F32B
:100200000A54C1F30A552C44A4F2F3340194A0FB20
:100210000254C1F3130141F48011C3F3130343F4F7
:10022000801301FB024400FB034E840A970A44EA50
:10023000815447EA8357A4FB076802958D0A05FBA2
:1002400007854FEA932C04FB0C542705029D4FEAC7
:10025000065847EA1637B5EB08056EEB070C870E14
:10026000920E47EA811742EA8312A7FB0201B6EB1E
:100270000B0164EB00042B0D43EA0C335E1844EBD6
:100280001C50DA465146E7FB0201C5F313044FEA5E
:100290000B3343EA14534FEA0432019C43EA06034A
:1002A000A4F10C040294009CCDE900B400F06AF8BB
:1002B00003B0BDE8F08F00200146F9E70EB5C10F8D
:1002C00080EAE0700844CA07002140F233438DE819
:1002D0000E000A460B4600F055F803B000BD70B59D
:1002E000C1F30A5201F000450024C1F3130140F2AA
:1002F000FF3341F480119A4201DA002070BD40F2D0
:1003000033439A42A2F2334203DC5242FFF73BFFEF
:1003100000E090402C43F1D0404270BD30B50B4618
:10032000014600202022012409E021FA02F59D4225
:1003300005D303FA02F5491B04FA02F52844151EF9
:10034000A2F10102F1DC30BD202A04DB203A00FAE0
:1003500002F1002070479140C2F1200320FA03F31C
:1003600019439040704710B5141E73F1000408DA69
:10037000401C41F1000192185B411A4301D120F069
:10038000010010BD2DE9F04D92469B4611B1B1FA26
:1003900081F202E0B0FA80F220329046FFF7D4FFFB
:1003A00004460F4640EA0A0041EA0B0153465A460A
:1003B000084313D0114653EA010019D0C8F1400296
:1003C0005046FFF7E0FE05460E4650465946424667
:1003D000FFF7BAFF084305D0012004E02046394664
:1003E000BDE8F08D0020054346EAE0762C43374314
:1003F0000A986305E40AA0EB08000022FD0A44EA1B
:1004000047540A3002D500200146E9E701051019DA
:100410006941DDE9084500196941BDE8F04DA2E7F1
:100420002DE9FE4F804681EA0300C00F0C46009084
:1004300021F0004123F00045B8EB0200A94105D2AC
:100440004046214690461C460B46024623F000409B
:10045000104347D0270DC7F30A00C3F30A51029097
:10046000401A019040286BDAC3F3130040F4801B5C
:100470000098924620B10023D2EB030A63EB0B0BEA
:1004800001985946C0F140025046FFF75DFF06460D
:100490000D4650465946019A00F01AF910EB080033
:1004A0006141002487EA115284EAE7731A4340D07D
:1004B000009A62B3019A012A4FEA075215DC001B29
:1004C00061EB02014FF0004202EA0752CDE900421F
:1004D000001C41F5801132462B46FFF753FF03B055
:1004E000BDE8F08F40462146F9E7001B61EB0201B1
:1004F000001C41F5801300185B412018A2F500177D
:1005000047EB030140EAD570B6196D4111E06D0863
:100510004FEA360645EAC0754FEA0752001B61EB09
:100520000201001C41F5801149084FEA3000001912
:10053000514132462B4603B0BDE8F04FFFF713BFE1
:100540000098012240000023D0EB020263EBE0732D
:10055000009821464FEAE074B8EB000061EB04011B
:10056000E9E783F000435BE781F0004158E72DE9BC
:10057000F04D81EA030404F0004B21F000451446DD
:100580004FF0000A23F0004150EA050220D054EA5F
:1005900001021DD0C5F30A570246C5F31303C1F388
:1005A0001300C1F30A5640F4801543F48013A7EBFF
:1005B0000608101BD64608F2FD3873EB050002D37F
:1005C00008F1010801E092185B41B8F1000F03DA6D
:1005D00000200146BDE8F08D00204FF48011064652
:1005E00084460EE0171B73EB050705D3121B63EB64
:1005F000050306434CEA010C49084FEA3000921803
:100600005B4150EA0107EDD152EA030012D082EAC1
:10061000040083EA0501084305D0101BAB4106D254
:100620000122002306E000224FF0004302E06FF0B9
:10063000010253101AEB06004CEB085110EB0A00B4
:1006400041EB0B01BDE8F04DFFF78DBEC1F30A523F
:10065000C1F3130140F2FF3341F480119A4202DAF0
:1006600000200146704740F233439A42A2F23342DF
:1006700002DC5242FFF787BDFFF766BE30B5041EAD
:1006800071F1000404DB4FF00044404264EB0101CF
:10069000141E73F1000405DB1C464FF00043524268
:1006A00063EB0403994208BF904230BD064C074DEE
:1006B00006E0E06840F0010394E807009847103432
:1006C000AC42F6D3FFF716FD684C0008884C0008D2
:1006D000202A06DBCB17203A41FA02F043EAE07306
:1006E00006E041FA02F3D040C2F1200291400843F3
:1006F00019467047FEE7000000B58BB000214001AD
:1007000000F500500591CDE900014FF6E070CDE90C
:1007100002010120CDE90610049108900E200990F5
:1007200069460B4800F0E8F908B100F06DF90221C4
:10073000074800F06BF908B100F066F9044800F0D2
:1007400052FD002801D000F05FF90BB000BD0000A1
:100750007C00002070B51E461346002488B0224657
:1007600048B10420CDE90110CDE903238DF8142010
:100770004FF6FE7506E002920091F5E7641CA4B204
:10078000AC420CD8074800F0A2FA0028F6D006AB1D
:1007900032466946034800F04BF9002800D001209A
:1007A00008B070BD7C00002070B5184800240168B6
:1007B00021F00F010160016841F008010160144D52
:1007C00004E0641CE4B2012003F09EFD02212846EF
:1007D00000F062FE10B1C82CF3D30FE0C82C0DD28C
:1007E000002404E0641CE4B2012003F08DFD02212A
:1007F000284600F051FE18B1F02C04D3012070BD42
:10080000F02CEFD3FAE7002070BD00000008014093
:10081000000C014070B500F099F800F075F8FFF792
:10082000C3FFCC2000F0A0F8BE2000F09DF800F03F
:100830005BF8044600F058F8072805D9C043E143A7
:10084000C0B2CCB2002500E0012504EB002000B2CC
:10085000FFF734FD0022054BFFF7BEFCFFF73FFD1D
:1008600000B2002D01D1404200B270BD0000E43F53
:1008700010B500F049F8BDE81040FFF795BF000043
:1008800070B5174C206820F00F002060206840F001
:1008900003002060134D00220221284600F001FED3
:1008A000022003F031FD01220221284600F0F9FD6B
:1008B000206820F00F002060206840F008002060D1
:1008C0000C2003F021FD0221284600F0E5FD08B1CF
:1008D000012400E00024322003F016FD204670BD04
:1008E00000080140000C014070B500250124FFF70D
:1008F000C7FFC001641C40EA5500E4B2C5B2082C31
:10090000F5D9284670BD00000E4810B5016821F0E9
:100910000F010160016841F0030101600A4C0022EF
:100920000221204600F0BDFD40F2EE2003F0ECFC79
:1009300001220221204600F0B4FDBDE810400F2046
:1009400003F0E2BC00080140000C014010B5FFF7C5
:10095000DBFFFFF729FFCC2000F006F8BDE81040D0
:10096000442000F001B8000070B505461948016840
:1009700021F00F010160016841F003010160164E92
:10098000012415F0010F4FEA55054FF000024FF01A
:10099000020130460BD000F084FD022003F0B4FCCD
:1009A00001220221304600F07CFD3C200AE000F0EC
:1009B00078FD3C2003F0A8FC01220221304600F023
:1009C00070FD022003F0A0FC641CE4B2082CD8D90E
:1009D00070BD000000080140000C0140704700EBB2
:1009E000811010B58030C0B202F0E6FABDE81040C8
:1009F000012000F02BBC082000F05CBC102000F0AF
:100A000059BC202000F056BC72B6FEE790F82020BA
:100A1000012A07D0022A05D0416A41F480214162AF
:100A200001207047006842690A4342610020704714
:100A3000F0B590F820500468A468012D05D0022D6F
:100A400003D0416A41F4802153E014F0406F01D19A
:100A5000E5004BD5C4F30164022C03D9416A41F48B
:100A6000000146E00125A5401D608B684FF4C0756C
:100A70009BB1CE6833434E6843EAC603066805EB74
:100A80000417F3514FF4C273076803EB04130E69A4
:100A9000FE50097D012905D009E00E88CB6843EAA4
:100AA0004653EBE70168CE5846F48076CE50117974
:100AB000D2F805304FF4C67641EA0323016806EB0D
:100AC00004168B511178D2F801204FF4C47341EA17
:100AD0000221026803EB0413D150006805EB0411F6
:100AE000425842F0010242500020F0BD416A41F4F8
:100AF000001141620120F0BD10B590F8203002686D
:100B0000012B07D0022B05D0416A41F480214162BC
:100B1000012010BDD2F8000240F00100C2F800022E
:100B2000087D00F01F0301209840D2F81C32834357
:100B3000C2F81C32CB69B3B9D2F80C328343C2F885
:100B40000C328C894B6864F31F434C6902EBC4047C
:100B5000C4F840320C890B6864F31F434C6902EB04
:100B6000C404C4F84432CB69012B16D1D2F80C323C
:100B70000343C2F80C320C884B6864F31F434C6982
:100B800002EBC404C4F840320C89CB6864F31F4301
:100B90004C6902EBC404C4F844328B69002BD2F8D0
:100BA00004320ED00343C2F804320B69002BD2F892
:100BB000143208D00343C2F81432096A012904D060
:100BC00008E08343EFE78343F5E7D2F81C120143C3
:100BD000C2F81C12D2F8000220F00100C2F8000294
:100BE000002010BD704730B590F82040012C05D092
:100BF000022C03D0416A41F480215DE004680029A1
:100C000055D02469A40754D04FF4D874056804EB78
:100C100001142D5915F00405956005682D594ED025
:100C2000ED08556005682C5904F00204D4604FF4B7
:100C3000DA74056804EB01142D5905F00F051561F0
:100C400005682D59C5F30725956105682C59240CB5
:100C500054614FF4DC72046802EB0112A4581C705A
:100C60000468A458240A5C700468A458240C9C707E
:100C70000468A258120EDA704FF4DE72046802EBB8
:100C80000112A4581C710468A458240A5C710468F9
:100C9000A458240C9C710468A258120EDA710068E2
:100CA00081B1016941F020010161002030BDE4689B
:100CB000A8E7416A41F400114162012030BD6D0D89
:100CC0001560AFE7C16841F02001C160EDE7024661
:100CD000002092F82010012901D002290CD11168BE
:100CE0008A68520100D501208A68120100D5401C93
:100CF0008968C90000D5401C70472DE9F05F0546A2
:100D0000006800244669D0F804908768D0F80CB0D9
:100D1000D0F810A0D0F81880F10748D0F90714D007
:100D200001218160B80703D5284600F088FA0CE05D
:100D3000780702D54FF4006407E0380702D54FF476
:100D4000805402E0284600F079FAF80516D52968A3
:100D50004FF480708860B80503D5284600F071FA1A
:100D60000CE0780502D544F4005407E0380502D5BC
:100D700044F4804402E0284600F062FAF80316D5F5
:100D800029684FF480308860B80303D5284600F006
:100D90005AFA0CE0780302D544F4004407E0380323
:100DA00002D544F4803402E0284600F04BFA3007C4
:100DB00007D55FEACB6004D52968102044F400749D
:100DC000C86070074FF0080707D55FEA0B7004D5BD
:100DD0002868C760284600F059F9B00706D528688A
:100DE000C068800702D0284600F052F9700607D587
:100DF0005FEACA6004D52968102044F48064086161
:100E0000B00607D55FEA0A7004D52868076128464E
:100E100000F0E6F9F00606D528680069800702D0E0
:100E2000284600F0DEF9B00308D55FEAC96005D5B1
:100E3000296810204860284600F0D4F9F00307D54F
:100E40005FEA097004D528684760284600F0FCF97D
:100E5000300446D55FEA497040D5F00504D55FEA15
:100E6000C87001D044F00104B00504D55FEA887071
:100E700001D544F00204700504D55FEA487001D53D
:100E800044F00404300529D518F0700F26D008F07E
:100E90007000402815D006DC102809D020280AD080
:100EA000302816D10AE050280ED0602811D10EE06B
:100EB00044F008040DE044F010040AE044F020047B
:100EC00007E044F0400404E044F0800401E044F40E
:100ED00080742868816921F070018161296804208B
:100EE0004860002C05D0686A204368622846FFF7F6
:100EF00079FEBDE8F09F70B5040003D094F820009F
:100F000010B104E0012070BD204600F081F8206897
:100F1000016841F00101016000F0C8FA05460526AC
:100F200004E000F0C3FA401B0A2811D8206840688A
:100F3000C007F6D02068016821F00201016000F0CE
:100F4000B5FA05460BE000F0B1FA401B0A2806D9B5
:100F5000606A40F40030606284F82060D2E7206864
:100F600040688007EFD4207E0128206801683DD0CA
:100F700021F080010160607E01282068016838D07E
:100F800021F040010160A07E01282068016833D073
:100F900021F020010160E07E0128206801682ED048
:100FA00041F010010160207F01282068016829D0EC
:100FB00021F008010160607F01282068016824D0C9
:100FC00021F004010160D4E902010843D4E90412CC
:100FD000114308436168491E08432168C861002025
:100FE0006062012084F82000002070BD41F0800183
:100FF000C0E741F04001C5E741F02001CAE721F018
:101000001001CFE741F00801D4E741F00401D9E72E
:1010100010B586B000210091019102910391006802
:10102000174988422AD11748C16941F00071C1614E
:10103000C16901F000710491816941F0040181618D
:101040008069114C00F0040004904FF4006000909F
:101050006946204600F03AF9A1140091022101915D
:10106000032103916946204600F030F90022012156
:10107000142000F0A9FC142000F098FC06B010BD6C
:10108000006400400010024000080140704700006A
:1010900070B588B04A4B6A460021FFF7A4FD0028CE
:1010A00025D1474C47490125207808704649052835
:1010B00041D006DC05285DD2DFE800F0111B222BB1
:1010C00034000023414A082848D002DC062851D1C8
:1010D0003AE03F4980284AD081284BD149E06078E6
:1010E00008702079487060798870A079C87008B05D
:1010F00070BD60780871A0784871E0788871F6E773
:101100006078C871A0780872E07848722079887297
:10111000EDE76078C872A0780873E07848732079AA
:101120008873E4E76078C873A0780874E07848743E
:1011300020798874DBE76278CA74A2780A75E2784D
:101140004A7522798A7515E06678CE75A6780E768E
:10115000E6784E7626798E7613700BE06178117002
:10116000A1785170E17891702179D17002E00D7011
:1011700000E00B700728BAD1164960780A788242DD
:1011800010D14978A27891420CD11349E378CA78FA
:101190009A4207D14A7823799A4203D189786279B1
:1011A0009142A4D0A178002202F0B8F9A379627923
:1011B0002179E07802F0A0F90848057097E700006F
:1011C00040000020090000205C00002020000020DA
:1011D000000000200B00002024000020010000205F
:1011E00070477047704770B5044690F8200001289A
:1011F00004D0606A40F40020606217E0022084F8A6
:1012000020002068016821F00101016000F04EF922
:1012100005460DE000F04AF9401B0A2808D9606A2B
:1012200040F400306062052084F82000012070BD89
:1012300020684068C007EDD1606270BD704770479C
:1012400070477047704770477047000070B504469C
:1012500000F02CF90546601C02D0044800780444D4
:1012600000F024F9401BA042FAD370BD4C000020CE
:1012700070B50A20FFF7EAFF0C4D0821284600F060
:101280000BF90B4C60B11021284600F005F948B16C
:101290002021284600F000F9002805D1032002E0B3
:1012A000012000E00220A07270BD0000000C01408F
:1012B00000000020044910B50A68024202D008600C
:1012C000FFF7D6FF10BD0000140401402DE9F84FD0
:1012D000DFF8A491002409F1040A0AF1040B234663
:1012E0004FF00F080BF1040EBEE00127A7403A4073
:1012F000BA4272D1DFF884C14D68A5EB0C06654592
:101300002BD00DDC032D34D005DC35B3012D19D0E5
:10131000022D2FD11BE0112D16D0122D2AD119E04C
:10132000B6F5881F19D006DCB6F5803F15D0B6F5A6
:10133000801F1FD111E0B6F5001F0ED0B6F5041FB7
:1013400018D10AE0CB6815E0CB681B1D12E0CB6812
:1013500008330FE0CB680C330CE08B682BB1012B0A
:101360004FF0080303D0476104E0042302E0076163
:1013700000E00023FF2A01D8064601E000F1040640
:101380004FEA840501D9A5F12005376808FA05FC64
:1013900027EA0C0703FA05F547EA050737604D68A9
:1013A000ED0060D5364DAE6946F00106AE61AD691F
:1013B00024F0030605F001050095324D7719BE684B
:1013C000A5072D0F08FA05FC26EA0C06DFF8B8C0C1
:1013D000604503D14FF0000C17E044E0DFF8ACC0EB
:1013E000604502D14FF0010C0FE0DFF8A4C060456A
:1013F00002D14FF0020C08E0DFF898C0604502D13E
:101400004FF0030C01E04FF0040C0CFA05FC4CEA21
:10141000060CC7F808C04D68D9F80060ED034D46CA
:1014200001D5164300E096432E604D68DAF800605F
:10143000AD03554601D5164300E096432E604D6836
:10144000DBF80060ED025D4601D5164300E09643EF
:101450002E604D68DEF80060AD02754601D516437A
:1014600000E096432E60641C0A6832FA04F57FF4AB
:101470003CAFBDE8F88F00000004014000001110EF
:10148000001002400000014000080140000C014033
:1014900000100140001401408068084000D0012085
:1014A00070470AB1016170470904FBE70148806891
:1014B000704700004C00002070B5040025D094F85F
:1014C0003D00002520B984F83C50204600F0E6F9A4
:1014D000242084F83D002068016821F001010160AA
:1014E0002068016841F4004101602068016821F42E
:1014F0000041016000F012FC4D4B6168994201D837
:101500004C4900E04C49884201D2012070BD4B4952
:101510002268B0FBF1F1566826F03F060E43566094
:1015200062689A4206D94FF4967251434FF47A7228
:10153000B1FBF2F12268491C166A26F03F063143DE
:1015400011626168994210D84900401EB0FBF1F267
:10155000521CC2F30B02042A01D2042022E0B0FB89
:10156000F1F0401CC0F30B001CE0A268F2B301EBE9
:10157000C10303EB0116431EB3FBF6F35B1C43F4FC
:1015800080431B0549D092B301EBC10202EB01116C
:10159000401EB0FBF1F0401CC0F30B0040F4804053
:1015A00040F400402168CA694CF6FF739A43104327
:1015B000C861D4E9071001432068026822F0C00224
:1015C00011430160D4E9030101432068826848F2B5
:1015D000FF339A4311438160D4E905100143206829
:1015E000C26822F0FF021143C16001E00EE016E084
:1015F0002068016841F0010101602564202084F821
:101600003D00256384F83E50002070BD01EB41068B
:10161000431EB3FBF6F35B1CB3E70120C2E701EB0B
:101620004101401EB0FBF1F0401CC0F30B00B7E7D6
:10163000A086010080841E0000093D0040420F008A
:101640002DE9F84F1F4690468A460446DDF828905B
:10165000FFF72CFF054694F83D0020287FD1192381
:10166000012240492046009501F000FC002876D177
:1016700094F83C00012872D0012084F83C002068D6
:101680000168C90703D1016841F0010101602068C8
:10169000016821F400610160212084F83D001020E0
:1016A00084F83E0000262664C4F824806785608D97
:1016B00020852D48E0622B464A465146204601F0DF
:1016C0000DFB90B9206841698069009036E02A4698
:1016D0004946204601F04AFC50B1206C042804D150
:1016E0002068016841F4007101600120BDE8F88FB5
:1016F000606A216800780861626A521C6262608DCB
:10170000401E6085208D401E80B2208521684B6977
:10171000DB435B070BD450B110780861606A401C52
:101720006062608D401E6085208D401E20852A46A7
:101730004946204601F074FB0028CED1208D0028B8
:10174000C5D154F83D0B016841F4007101602020BF
:1017500004F81E09E67766770020C7E7FFE7022056
:10176000C4E70000020010000000FFFF2DE9FF4F5A
:1017700083B09A46DDE9119793460446DDF8408030
:10178000FFF794FE054694F83D0020287FD11923E9
:10179000012240492046009501F068FB002876D1DF
:1017A00094F83C00012872D0012084F83C002068A5
:1017B0000168C90703D1016841F001010160206897
:1017C000016821F400610160212084F83D0040207F
:1017D00084F83E0000262664C4F82480A4F82A90E9
:1017E000608D20852C48E062CDE9007553465A464D
:1017F0002046049901F0C0FA70B930E02A46394613
:10180000204601F0B3FB58B1206C042804D12068B5
:10181000016841F400710160012007B0BDE8F08F5C
:10182000606A216800780861626A521C6262208DD9
:10183000401E80B22085618D491E618521684B69FB
:10184000DB435B070BD468B110780861606A401C09
:101850006062208D401E2085608D401E6085208D39
:101860000028CBD12A463946204601F0D9FA002873
:10187000CAD154F83D0B016841F400710160202089
:1018800004F81E09E67766770020C6E7FFE7022026
:10189000C3E70000020010000000FFFF10B586B093
:1018A0000021009101910291039100681049884242
:1018B0001BD1104CA06940F00800A061A0696946E6
:1018C00000F0080004904FF4406000901220019056
:1018D000032003900848FFF7F9FCE06940F480001A
:1018E000E061E06900F48000049006B010BD0000E3
:1018F0000058004000100240000C0140024881687E
:1019000002781144816070474C000020074810B5F0
:10191000016841F010010160032000F075F800201B
:1019200000F006F800F024F8002010BD002002406E
:1019300070B50D4D04464FF47A712878B1FBF0F084
:101940000A490968B1FBF0F000F09FFD48B9102C7E
:1019500007D200222146501E00F036F800206C60AD
:1019600070BD012070BD00004C0000205800002018
:101970000C4808B5816941F001018161816901F07C
:1019800001010091C16941F08051C161C0690649FE
:1019900000F080500090486820F0E06040F0007057
:1019A000486008BD0010024000000140002809DB2B
:1019B00000F01F02012191404009800000F1E02069
:1019C000C0F8001170470000F0B40E4B1B68C3F361
:1019D0000223C3F10704042C00D904241D1D072D84
:1019E00001D2002300E0DB1E012606FA04F56D1E7D
:1019F0000D409D409E40761E164045EA0601F0BC13
:101A000002F004B80CED00E0064A00F0070110688F
:101A10004FF6FF03184040EA0120034908431060D5
:101A2000704700000CED00E00000FA0501490120BC
:101A30000862704700000E4210B5014627A086B02C
:101A40001DC88DE81D0029A0294C006804900020C5
:101A5000012922D0022939D010291CD161682268BD
:101A6000D20118D5C1F38342C9031DF8020009D57C
:101A7000616804AAC1F34041515C1E4AB2FBF1F116
:101A8000484301E01C4948436168490203D44000CF
:101A90000321B0FBF1F006B010BD216AC1F30122B1
:101AA000012A03D1890701D5D003F4E7022A05D121
:101AB000616A890702D549F64040ECE7032AEAD17A
:101AC00021688903E7D54FF22440E4E700F036F9B6
:101AD0006168C1F38131491C4900DAE7020304055A
:101AE000060708090A0B0C0D0E0F1010010200006A
:101AF0000010024000127A0000093D002DE9F84371
:101B000004460078344FC00752D0F8690025C00061
:101B100008D4F86940F08050F861F869012500F0B8
:101B2000805000902D480168C90511D40168804695
:101B300041F480710160FFF7B9FC064604E0FFF74D
:101B4000B5FC801B642822D8D8F80000C005F6D563
:101B5000386A10F4407020D0A18801F440718142AD
:101B60001BD0386A1E49012220F440700A6000220E
:101B70000A603862C00710D0FFF798FC064641F2B1
:101B8000883807E0FFF792FC811B414502D903200A
:101B9000BDE8F883386A8007F4D5386A616820F4B4
:101BA0004070084338621DB1F86920F08050F86138
:101BB0002078800705D57868A16820F44040084364
:101BC00078602078C00605D57868E16820F4800048
:101BD000084378600020DBE70010024000700040FE
:101BE000400442422DE9F0470D46040067D0DFF87B
:101BF0001881D8F8000000F00700A8420CD2D8F8ED
:101C0000001021F007012943C8F80010D8F800009F
:101C100000F00700A84252D120683C4E810712D53F
:101C2000400703D5706840F4E060706020780007DA
:101C300003D5706840F4605070607068A16820F04F
:101C4000F000084370602078C00727D06068012842
:101C500010D03168022810D0890700292FDA716866
:101C600021F0030101437160FFF720FC074641F2B8
:101C700088390CE031688903EFE78901EDE7FFF768
:101C800015FCC11B494502D90320BDE8F0877068E7
:101C9000616800F00C00B0EB810FF0D1D8F80010B3
:101CA000404601F00701A9420BD9016821F0070164
:101CB00029430160006800F00700A84201D001201C
:101CC000E3E72078400705D57068E16820F4E0601C
:101CD000084370602078000706D57068216920F4F9
:101CE000605040EAC100706000F038F87168084A3E
:101CF000C1F30311515CC8400649086006480068FA
:101D0000FFF716FE0020C0E700200240001002404E
:101D1000504C00085800002050000020044805499D
:101D200000684968044AC1F30221515CC840704709
:101D30005800002000100240604C0008044805498B
:101D400000684968044AC1F3C221515CC840704729
:101D50005800002000100240604C000812A085B01E
:101D60000FC88DE80F0014A0144B00680490596848
:101D7000134801F00C02042A10D0082A0ED1C1F336
:101D80008342C9031DF802000AD5596804AAC1F3A9
:101D90004041515C0A4A5043B0FBF1F005B0704736
:101DA00008494843FAE7000002030405060708094A
:101DB0000A0B0C0D0E0F1010010200000010024063
:101DC00000127A0000093D002DE9F84F04006FD0A1
:101DD0002078BE4DC00747D06868C0F38100012855
:101DE00007D06868C0F38100022809D16868C00381
:101DF00006D52868800337D560680028E7D033E02F
:101E00006068B0F5803F0BD010B1B0F5A02F11D0B5
:101E1000286820F480302860286820F4802002E0C0
:101E2000286840F480302860606888B1FFF73EFB86
:101E3000064609E0286840F480202860F0E7FFF7B4
:101E400035FB801B642873D828688003F7D50BE026
:101E5000FFF72CFB064604E0FFF728FB801B6428F5
:101E6000F1D828688003F7D42078DFF864828007EF
:101E70004FF0010A4FF0000939D5686810F00C0FD7
:101E800007D06868C0F38100022809D16868C003E0
:101E900006D42868800714D52069012808D110E0ED
:101EA0002069B0B1C8F800A0FFF700FB064605E0C6
:101EB00007E1FFF7FBFA801B0228C4D828688007D7
:101EC000F7D52868616920F0F80040EAC100286071
:101ED0000DE0C8F80090FFF7E9FA064604E0FFF7C6
:101EE000E5FA801B022823D828688007F7D42078D9
:101EF00000072CD57748A169D9B1C0F800A0FFF739
:101F0000D5FA064604E0FFF7D1FA801B02280FD865
:101F1000686A8007F7D570484FF4FA510068B0FB43
:101F2000F1F0009000BF0098411E0091FAD20EE03F
:101F30007CE0C0F80090FFF7B9FA064604E0FFF72E
:101F4000B5FA801B022871D8686A8007F7D4207818
:101F500040075BD5E8690027C00008D4E86940F075
:101F60008050E861E869012700F0805000905B48EC
:101F70000168C90511D40168834641F4807101608C
:101F8000FFF794FA064604E0FFF790FA801B6428F6
:101F90004CD8DBF80000C005F6D5E06801280AD06F
:101FA00008B1052813D0286A20F001002862286AA9
:101FB00020F0040002E0286A40F001002862E06896
:101FC00041F2883B88B1FFF771FA064609E0286ABA
:101FD00040F004002862EEE7FFF768FA811B5945DC
:101FE0005BD8286A8007F7D50BE0FFF75FFA064653
:101FF00004E0FFF75BFA811B59454ED8286A800739
:10200000F7D41FB1E86920F08050E861E069A8B317
:102010006968C1F38101022946D00228484606D0EA
:10202000C8F86000FFF742FA044639E035E0474659
:10203000C8F86000FFF73AFA064604E0FFF736FA00
:10204000801B022829D828688001F7D4206AB0F5BF
:10205000803F05D16868A16820F4003008436860BB
:10206000D4E908010843696821F4741108436860E1
:10207000C7F860A0FFF71AFA044605E023E0FFF76F
:1020800015FA001B022808D828688001F7D51AE045
:10209000FFF70CFA001B022802D90320BDE8F88FD5
:1020A00028688001F4D40EE00128F7D06868226A1D
:1020B00000F48031914204D1616A00F470108842CA
:1020C00001D00120EAE70020E8E70000001002400C
:1020D000000042428004424258000020007000404C
:1020E000F8B505004FF0000016460C46009006D0EB
:1020F0002CB100226946284600F019F808B10120E9
:10210000F8BD287B2070E87BE070697B6170A97B5B
:10211000A17056B101F042F9E070607801F03EF92B
:102120006070A07801F03AF9A0700020F8BD2DE9A8
:10213000F04791460C465FEA00084AD084B3D8F8CD
:1021400000004068400744D4404601F0C4F94FF411
:102150006162B0FBF2F10546B0FBF2F002FB1053F6
:102160003C20B3FBF0F36370B5FBF2F302FB1352B8
:10217000B2FBF0F300FB1320A070182931D3182014
:10218000B1FBF0F6B1FBF0F200FB121020704046FC
:1021900001F09AF9411C04D0A84202D9471B02E081
:1021A00017E04FF0FF37A6EB061000EB4000C0EB46
:1021B000001005EBC0152946404601F0FEF940B974
:1021C000781C01D0791900E03946404601F0E1F968
:1021D00010B10120BDE8F0873146404601F0E9F832
:1021E00000E02170B9F1000F0BD0207801F0D6F893
:1021F0002070607801F0D2F86070A07801F0CEF81D
:10220000A0700020E6E7000070B5040003D0607CF9
:10221000002610B105E0012070BD2674204600F0B4
:1022200043F802206074204600F012F9042578BBC0
:10223000204601F015F958BB2068416821F00701DC
:102240004160A06820B11748016821F001010160D8
:102250001448001F0168A26821F4607111430160F5
:102260006068411C04D10120FFF7E6FB80B1401EED
:1022700021688A6822F00F0242EA10428A602168CF
:10228000CA6860F30F02CA60204601F003F908B182
:102290006574C0E7E67301206073A073607400206A
:1022A00070BD0000306C004008B5006808498842E5
:1022B0000DD1FFF7BBFB0748C16941F00061C16167
:1022C000C069054900F0006000900120086008BD69
:1022D00000280040001002403C0442422DE9F04139
:1022E0000D4604003BD0C5B3207C01283AD04FF006
:1022F000010884F8108002206074E87872B301F05D
:1023000044F8E073687801F040F86073A87801F051
:102310003CF8A073C2B2617BE07B01F00FF920733F
:102320002870204601F0D7F84FF46161B0FBF1F15D
:10233000002518292DD91822B1FBF2F1A1EB0111CA
:1023400001EB4101C1EB011100EBC1163146204602
:1023500001F033F90427C8B90BE000E004E00120E4
:10236000BDE8F0810220FBE7E07368786073A8782D
:10237000CFE7204601F0A8F8411C0AD0B04208D2AD
:1023800006490144204601F004F910B16774257430
:10239000E5E784F8118025740020E1E78051010011
:1023A0002DE9F0410D46040024D01DB3207C012806
:1023B00023D04FF0010884F8108002206074F2B13D
:1023C000287800F0E2FF4FF4616100FB01F66878C5
:1023D00000F0DBFFC0EB001006EB8006A87800F0F1
:1023E000D4FF35182946204601F0E7F800260427D7
:1023F00018BB10E00120BDE8F0810220FBE729783E
:102400004FF4616041436878C0EB001001EB80003D
:10241000A9784518E6E72068416821F00501416088
:10242000204601F051F8411C0AD0A84208D20749C1
:102430000144204601F0ADF810B167742674D9E765
:1024400084F8118026740020D5E700008051010037
:1024500070B504000AD02068416821F0080141608D
:10246000FFF724F805464FF47A7608E0012070BDA6
:10247000FFF71CF8401BB04201D9032070BD206853
:1024800040680007F4D5002070BD10B5401EB0F1C3
:10249000807F01D3012010BD4FF0E02460610F2147
:1024A000601701F0B3FA0020A0610720206100202E
:1024B00010BD70477047000070B590F83C20012AAD
:1024C00026D0012580F83C50022280F83D20026889
:1024D0005368946823F070060B68334353600D4BC8
:1024E00002689A4208D0B2F1804F05D00A4B9A4256
:1024F00002D00A4B9A4204D1496824F08003194360
:10250000916080F83D50002180F83C10084670BD75
:10251000022070BD002C0140000400400008004073
:1025200010B5040003D094F83D0010B107E001207D
:1025300010BD002084F83C00204600F01FF8022067
:1025400084F83D00211D206801F096F8012084F8F0
:10255000460084F83E0084F83F0084F8400084F888
:10256000410084F8420084F8430084F8440084F871
:10257000450084F83D00002010BD000008B500684B
:10258000104A1149904211D1886940F40060886175
:102590008869002200F40060009002211920FFF7F2
:1025A00013FABDE808401920FFF700BA074A904225
:1025B00007D1C86940F00400C861C86900F0040090
:1025C000009008BD002C01400010024000080040AF
:1025D00090F83D10012901D001207047022180F8B8
:1025E0003D100168CA6842F00102CA6000680B49E8
:1025F000884208D0B0F1804F05D00949884202D006
:102600000849884204D1816801F00701062903D0F6
:10261000016841F00101016000207047002C014079
:10262000000400400008004070B5044690F83C00EB
:10263000012817D0012584F83C50022084F83D0081
:102640002068826822F0770222F47F428260086864
:10265000502830D00DDC20284DD005DC98B3102850
:102660003BD148E0022070BD302844D0402834D10E
:1026700039E0602828D0702806D0B0F5805F2CD0D3
:10268000B0F5005F29D10AE0CB68D1E901212068CB
:1026900001F035F82068816841F0770109E0CB68E6
:1026A000D1E90121206801F02AF82068816841F40D
:1026B0008041816011E0CA684968206801F0DAF859
:1026C0005021206807E016E0CA684968206801F0D8
:1026D000E2F86021206801F01CF884F83D500020E9
:1026E00084F83C0070BDCA684968206801F0C2F8EF
:1026F00040212068EFE7226801461046EBE770476B
:1027000070B50446006801694FF00005C9438907A8
:1027100015D4C168C943890711D4E91E016101209C
:102720002077206880698007204602D0FFF7E7FF06
:1027300004E000F0BFF8204600F04EF9257720684D
:102740000169C943490717D4C168C943490713D46C
:102750006FF004010161022020772068806910F485
:10276000407F204602D0FFF7CAFF04E000F0A2F845
:10277000204600F031F9257720680169C94309072F
:1027800016D4C168C943090712D46FF0080101616A
:10279000042020772068C0698007204602D0FFF718
:1027A000AEFF04E000F086F8204600F015F925772A
:1027B00020680169C943C90617D4C168C943C9065D
:1027C00013D46FF010010161082020772068C069E0
:1027D00010F4407F204602D0FFF791FF04E000F0A4
:1027E00069F8204600F0F8F8257720680169C943A8
:1027F000C90708D1C168C943C90704D1891E01614D
:10280000204600F073F920680169C943090609D41C
:10281000C168C943090605D46FF0800101612046F3
:10282000FFF747FE20680169C943490609D4C1681A
:10283000C943490605D46FF040010161204600F00C
:1028400073F920680169C94389060BD4C168C9437B
:10285000890607D46FF0200101612046BDE8704071
:10286000FFF728BE70BD000000B585B000210091C3
:1028700001910291039100680B49884212D10B48E3
:10288000816941F0080181618069694600F00800B2
:1028900004904FF4007000900220019003900448CF
:1028A000FEF714FD05B000BD000800400010024016
:1028B000000C0140704770B5044690F83C000D468E
:1028C00001280AD0012084F83C0042B1042A18D023
:1028D000082A2AD00C2A4DD139E0022070BD206888
:1028E00000F020FF2068816941F0080181612068C3
:1028F000816921F004018161206881692A6911439D
:1029000011E0206800F03AFF2068816941F400611D
:1029100081612068816921F4806181612068816919
:102920002A6941EA0221816124E0206800F054FF15
:102930002068C16941F00801C1612068C16921F0C6
:102940000401C1612068C1692A69114311E020684E
:1029500000F06EFF2068C16941F40061C161206828
:10296000C16921F48061C1612068C1692A6941EAB5
:102970000221C161002084F83C0070BD10B5040044
:1029800003D094F83D0010B107E0012010BD0020F5
:1029900084F83C00204600F01EF8022084F83D0038
:1029A000211D206800F068FE012084F8460084F8AC
:1029B0003E0084F83F0084F8400084F8410084F829
:1029C000420084F8430084F8440084F8450084F809
:1029D0003D00002010BD70477047000010B5044650
:1029E00049B104290AD008290BD094F841000128E4
:1029F0000AD0012010BD94F83E00F8E794F83F009B
:102A0000F5E794F84000F2E7022041B3042929D009
:102A100008292AD084F841000122206800F062FED3
:102A200013492068884203D1426C42F40042426458
:102A30002068884208D0B0F1804F05D00D49884207
:102A400002D00D49884204D1816801F007010629AE
:102A500003D0016841F001010160002010BD84F83D
:102A60003E00D9E784F83F00D6E784F84000D3E77A
:102A7000002C0140000400400008004030B504462E
:102A80000D460068002200F02DFE174A41F2111198
:102A900020688B10904209D1026A0A4206D1026A6C
:102AA0001A4203D1426C22F4004242642068026A56
:102AB0000A4206D1016A194203D1016821F00101DD
:102AC000016001203DB1042D08D0082D09D084F803
:102AD0004100002030BD84F83E00FAE784F83F0052
:102AE000F7E784F84000F4E7002C014070B50D4C86
:102AF0003C220023D4E90C01401C41F100010646B0
:102B00000D46C4E90C01FDF70DFB01211A4300D16C
:102B1000A17086F46160284302D1E170C4E90C0021
:102B200070BD000000000020704770B5040004D0A4
:102B300094F83D00002510B106E0012070BD84F836
:102B40003C50204600F022F8242084F83D00206804
:102B5000C16821F40051C160204600F0AFFE20683A
:102B6000016921F4904101612068416921F02A0145
:102B700041612068C16841F40051C1602564202092
:102B800084F83D0084F83E00002070BD30B585B06B
:102B9000002400940194029403940068144988422C
:102BA00024D11448816941F480418161816901F433
:102BB00080410491816941F00401816180690E4D79
:102BC00000F0040004904FF4007000900220019087
:102BD0000320039069462846FEF778FB2815CDE9C7
:102BE0000004694628460294FEF770FB05B030BD2C
:102BF0000038014000100240000801402DE9F84370
:102C0000044690F83D001F4615460E4620284BD13D
:102C1000C6B1BDB194F83C00012845D0012084F82C
:102C20003C004FF00008C4F84080212084F83D00AB
:102C3000FEF73CFCA5848146E584A068B0F5805F82
:102C400003D004E00120BDE8F883206920B13546B7
:102C5000002684F83C800EE00025FAE7802120461B
:102C600000F088FEA0B9ADB115F8010B21684860ED
:102C7000E08C401EE084E08C4B464FF00002009751
:102C80000028EBD14FF04001204600F073FE30B138
:102C90000320D8E736F8020BC0F30800E6E720204F
:102CA00084F83D000020CEE70220CCE7FEE7016873
:102CB0004A69D24352050FD46FF480624A61002101
:102CC00040F8301F202242738173026942F00402EF
:102CD000026101730120704700207047F8B5044677
:102CE000C06A1E460D461746082807D0012805D0A1
:102CF00010F5803F02D0206B122804D120680168B3
:102D000041F480710160134600224FF0011120460A
:102D1000009600F0ABF840B120680068C00502D50D
:102D20004FF4007020640320F8BD2069B0F5804F97
:102D30000ED00620216800EAD51040F0F0000861AE
:102D400033463A460B49204600F0C4F878B902E011
:102D500005F0FE0000E0E8B221680861054933464D
:102D60003A46891F204600F0B5F80028DCD0012043
:102D7000F8BD0000080001002DE9F8430446006892
:102D80000D46DDE9089701689846164641F48071C2
:102D900001604B4600224FF001112046009700F0E1
:102DA00065F848B120680068C00502D54FF400708E
:102DB00020640320BDE8F883216805F0FE00086167
:102DC0003B464A461549204600F084F888B92068F9
:102DD0004169806900903A464946204600F0C6F8AD
:102DE00048B1206C042804D12068016841F40071C6
:102DF00001600120DEE7F5B2B8F1010F09D02168CA
:102E0000300A08613A464946204600F0AFF80028EB
:102E1000E7D1206805610020CCE700000200010036
:102E200070B516460D4604460DE02046FFF73FFFFD
:102E300008B1012070BD681C05D0FEF737FB801B70
:102E4000A84207D835B120684069C0434007ECD498
:102E5000002070BD002044F8300F20216173A07362
:102E6000216941F0200121612073E2E72DE9F0475B
:102E70001D4690460E460446C1F30747DDF82090F4
:102E800008E0681C06D0FEF711FBA0EB0900A84281
:102E90000FD875B12068012F18D0806926EA00008C
:102EA0000004000C14D000204045EAD00020BDE80A
:102EB000F087002044F8300F20216173A07321694E
:102EC00041F02001216120730120F0E74069E5E72E
:102ED0000120E9E72DE9F047984615460E460446DD
:102EE0004FF000094FF0200AC1F3074723E02068A4
:102EF0004069C043400515D42068016841F4007161
:102F0000016021686FF480604861C4F8309084F8F3
:102F10003DA084F83E90216C41F00401216484F8C6
:102F20003C901EE0681C06D0FEF7C0FAA0EB08003B
:102F3000A8420AD84DB12068012F15D0806926EA31
:102F400000000004000C0DD0D1E744F8309F84F855
:102F50000DA084F80E90216941F02001216184F8D0
:102F60000C900120BDE8F0874069E8E770B516468F
:102F70000D4604460DE02046FFF799FE08B10120FA
:102F800070BD681C05D0FEF791FA801BA84207D8D7
:102F900035B120684069C0430006ECD4002070BD04
:102FA000002044F8300F20216173A073216941F0A3
:102FB000200121612073E2E71CB507A10223096803
:102FC00001918DF805004FF47A70009001AA7C21E0
:102FD0000248FEF735FB1CBD80000000A400002065
:102FE0001CB507A10223096801918DF805004FF473
:102FF0007A70009001AA7C210248FEF721FB1CBDDB
:10300000C0000000A4000020104810B50E49016067
:103010001221416000214FF480228160C0E9031237
:10302000120142610176417681760122C2760177F2
:103030004177FDF760FF08B1FDF7E6FCBDE8104001
:103040000120FDF759BB0000006400407C00002017
:103050002DE9F04786B000244A4800940194029478
:103060000394816941F010018161816901F01001CF
:103070000491816941F020018161816901F02001A1
:103080000491816941F004018161816901F00401C9
:103090000491816941F00801816180693A4F00F033
:1030A00008004FF400550490002229463846FEF7E8
:1030B000F8F9DFF8D8A001224FF481715046FEF7ED
:1030C000F0F9DFF8CC904FF4004800224146484622
:1030D000FEF7E7F90095022601250396CDE9015494
:1030E00069463846FEF7F2F81320CDE90004694638
:1030F00048460294FEF7EAF8CDE900546946504686
:103100000294FEF7E3F8032703970096CDE90154F4
:1031100069465046FEF7DAF8CDF800800397CDE90E
:10312000015469464846FEF7D1F838200090194806
:10313000CDE9010569465046FEF7C8F82802CDE9F9
:103140000005CDE9025669465046FEF7BFF8002259
:1031500003210920FEF738FC0920FEF727FC002296
:1031600003210A20FEF730FC0A20FEF71FFC002294
:1031700003211720FEF728FC1720FEF717FC06B0E6
:10318000BDE8F0870010024000100140000C014033
:1031900000080140000021100D4810B50B490160E6
:1031A0000C494FF48042C0E901120021C0E903122A
:1031B00041618161C1610162FEF77EF9002803D09F
:1031C000BDE81040FDF720BC10BD000000580040D5
:1031D000A4000020801A06001CB5002418480094A2
:1031E000164901940160611E41604FF48071816055
:1031F000FFF70AF808B1FDF707FC8DF800408DF8DD
:1032000001408DF80240002269460D48FFF7C8F8DA
:1032100008B1FDF7F9FB01208DF804008DF80500D9
:103220008DF806008DF80740002201A90448FFF739
:1032300055F8002801D0FDF7E7FB1CBD0028004031
:10324000F800002010B586B00024184800940194BE
:1032500002940394049414490594016041F270713E
:10326000C0E9011442F21071C0E9031444618461A1
:10327000FFF756F908B1FDF7C7FB4FF480500090F7
:1032800069460A48FFF7D0F908B1FDF7BDFB049481
:1032900004A906480594FFF70FF9002801D0FDF7AF
:1032A000B3FB06B010BD0000002C01400C01002053
:1032B00010B58EB000240794089409940A940B94D6
:1032C0001C2168460C94FCF775FF1F481D490160DE
:1032D0003C21C0E901144FF4C871C0E903148021F6
:1032E0008161FFF71DF908B1FDF78EFB4FF48050A7
:1032F000079007A91448FFF797F908B1FDF784FB79
:103300001148FFF73BFB08B1FDF77EFB0B940BA9BF
:103310000D480C94FFF7D0F808B1FDF775FB60205D
:103320000090C820CDE901040C22694606480494A7
:10333000FFF7C1FA08B1FDF767FB0348FFF794FAFE
:103340000EB010BD00080040540100200C4810B51C
:103350000A4901604FF416514160002181600C223E
:10336000C160C0E904128161C161FFF7DEFB002882
:1033700003D0BDE81040FDF747BB10BD0038014049
:103380009C010020FEE7FEE77047010901EB810187
:1033900000F00F0000EB4100C0B27047002102E0D6
:1033A0000A38C0B2491C0A28FAD2090740EA11605B
:1033B00070472DE9F04104460025C07B627BA37B6A
:1033C00042E0012A16D0032A14D0052A12D0072A77
:1033D00010D0082A0ED00A2A0CD00C2A0AD0042AAF
:1033E00010D0062A0ED0092A0CD00B2A0AD0022AA5
:1033F0000DD028E01F2B0CD30C2A05D10122134637
:10340000401C20E01E2B04D30123521C1BE01C2B6C
:1034100002D203F1010316E011D183B29E0710D14D
:103420006426B3FBF6F706FB173636B94FF4C876B9
:10343000B3FBF6F706FB17331BB91D2303E01D2B67
:1034400001D1032201236D1C8D42BAD3D1B2E073A6
:103450006173DAB2A27300F071F82073BDE8F081F5
:1034600070B50546FEF722F804464FF47A7606E07A
:10347000FEF71CF8001BB04201D9032070BD28687C
:1034800040688006F4D52868416841F01001416029
:10349000002070BD70B505460068416821F010013C
:1034A0004160FEF703F804464FF47A7606E0FDF734
:1034B000FDFF001BB04201D9032070BD28684068A1
:1034C0008006F4D5002070BD0068016A406A80B2B1
:1034D00040EA01407047006881698AB2C1698BB2D5
:1034E000816989B28A4203D0C06961F31F40704785
:1034F00043EA02407047000008B58DF802208DF8BD
:1035000001108DF800308DF8030000226946024852
:10351000FEF7E4FE08BD0000F800002008B58DF8B5
:1035200000008DF801108DF8022000226946024843
:10353000FEF736FF08BD0000F8000020F0B5642655
:10354000C1EBC1030925B700072403EB01130329CD
:10355000B3FBF5F100F5FA60114401440AD2401EB4
:10356000B0FBF6F201EB9001B0FBF7F0891A0844CA
:10357000001D08E0B0FBF6F201EB9001B0FBF7F0A4
:10358000891A0844801CB0FBF4F104FB1100C0B29E
:10359000F0BD70B50D4606460024FFF761FF48B93F
:1035A0003168280C08623168A8B248623046FFF7DB
:1035B00071FF00B10124204670BD70B50D4606466E
:1035C0000024FFF74DFF48B93168280C8861316845
:1035D000A8B2C8613046FFF75DFF00B10124204664
:1035E00070BD7047FEF78AB970B594B0282168465F
:1035F000FCF7E0FD14210AA8FCF7DCFD00240F9481
:10360000052000904FF4803001AA10941194129478
:103610004100012582E8230002260495CDE90760D8
:103620004FF4501009906846FEF7CEFB08B172B611
:10363000FEE70F20CDE90A064FF48060CDE90C408B
:1036400002210AA80E94FEF7CDFA08B172B6FEE781
:103650004FF48070CDE90F500FA8FEF74FFA002805
:1036600001D072B6FEE714B070BD70470148FFF795
:1036700047B800000C010020F0B50268164C174D49
:10368000174E4FF08047A04205D0B84203D0A84261
:1036900001D0B04203D122F070034A681A43A0421D
:1036A00005D0B84203D0A84201D0B04203D122F4E1
:1036B0004073CA681A434B6922F080021A430260C1
:1036C0008A68C2620A688262A04201D10969016304
:1036D00001214161F0BD0000002C014000040040C8
:1036E0000008004010B501F01F010123046A8B405F
:1036F0009C430462036A8A401343036210BD10B501
:10370000846842EA032224F47F440A43224382600D
:1037100010BD826822F070020A4342F00701816006
:103720007047000030B5026A22F001020262036AAB
:103730004268846924F073050C682C4323F0020569
:103740008B682B430C4DA84206D123F00805CB68AB
:1037500043EA050323F0040307D14D6922F44072C4
:1037600045EA02058A6942EA0502426084614968C5
:103770004163036230BD0000002C014030B5026A95
:1037800022F010020262026A436884690D6824F420
:10379000E64444EA05248D6822F0200242EA05123C
:1037A0000C4DA84206D1CD6822F0800242EA0512F3
:1037B00022F0400207D14D6923F4406343EA8503B8
:1037C0008D6943EA850343608461496881630262CD
:1037D00030BD0000002C014030B5026A22F4807236
:1037E0000262036A4268C46923F4007324F073051B
:1037F0000C682C438D6843EA05230C4DA84206D182
:10380000CD6823F4006343EA052323F4806307D1E2
:103810004D6922F4405242EA05128D6942EA0512CE
:103820004260C4614968C163036230BD002C01403D
:1038300030B5026A22F480520262036A4268C469A7
:103840000D6824F4E64444EA05248D6823F400530B
:1038500043EA0533064DA84204D14D6922F4804263
:1038600042EA85124260C46149680164036230BD66
:10387000002C014010B5046A036A23F001030362BF
:10388000836923F0F00343EA021324F00A020A4397
:103890008361026210BD10B5036A23F01003036256
:1038A0008469036A24F4704444EA023223F0A003DA
:1038B00043EA01118261016210BD000070B5044647
:1038C00000680169E26821F4405111430161A16877
:1038D00020690143606901432068C26841F20C63BA
:1038E0009A430A43C26020684169A26921F4407189
:1038F000114341611E492068884202D1FEF71EFA39
:1039000001E0FEF70BFA00EBC00101EB001160686B
:1039100064228000B1FBF0F3B3FBF2F36FF0180602
:103920007343B1FBF0F5B1FBF0F605EB83053223F1
:1039300003EB0515B5FBF2F5B6FBF2F605F0F00565
:1039400005EB0615B1FBF0F6B1FBF0F0B0FBF2F0C1
:103950006FF01801484306EB800003EB0010B0FB4A
:10396000F2F0216800F00F002844886070BD00006C
:10397000003801402DE9F0411E46174688460446AE
:10398000069D1CE0681C1AD025B1FDF78FFD801B39
:10399000A84214D92068C16821F4D071C1602068A0
:1039A000416921F001014161202084F83D0084F843
:1039B0003E00002084F83C000320BDE8F081206830
:1039C000016838EA010004D00020B842DAD00020B3
:1039D000F3E70120F9E700000148FDF78EB9000088
:1039E0007C000020FEE7000037B514460846064B71
:1039F0006A46214600F0ECF804466946002000F0D3
:103A00007EFC20463EBD0000FF4200080907090E6B
:103A1000002804DB00F1E02080F80014704700F07B
:103A20000F0000F1E02080F8141D704702E008C884
:103A3000121F08C1002AFAD170477047002001E028
:103A400001C1121F002AFBD1704700002DE9FF5F62
:103A500082B00021DDE90430020DDDF840B00343FF
:103A600018D044F61050A2F2FF32424315141198B8
:103A700001281FD0A5EB0B00401C5FEA000A4FF0A5
:103A800000064E4FDFF83891B046504615D5CAF1C2
:103A9000000413E0119801244AA3012801D16FEA20
:103AA0000B010298119AC0E90031C0E9024206B048
:103AB000BDE8F09FCBF10000DFE704460021404A5B
:103AC000491842EB0450CDE9001012E0E00707D09E
:103AD00032463B4640464946FCF77EFB80468946D7
:103AE00032463B4610461946FCF776FB06460F4623
:103AF0006410002CEAD1DDE90401DDE90023BAF10C
:103B0000000F06DAFCF768FB42464B46FCF764FB05
:103B100005E0FCF72CFD42464B46FCF728FD044629
:103B20000E460022284BFCF7A9FD03D84FF0FF30CA
:103B3000014607E00022254B20463146FCF770FC89
:103B4000FCF784FD102409E0002C0ADB0A22002384
:103B5000FCF7E8FA039B30321A55641E50EA010262
:103B6000F2D1641C039AC4F111031444119A012A7E
:103B700003D0012208430DD10AE0084304D00020FD
:103B80004FF0110B119072E7A3EB0B056D1E0DE0CA
:103B90005B4504DD4FF0000205F1010504E003DAA6
:103BA0004FF00002A5F10105002AECD0029811990E
:103BB000C0E90231C0E9004579E700000000144087
:103BC0000000F03F300000000000F0430000E03F44
:103BD0002DE9FF4F95B09B468946064600250FE22A
:103BE000252877D100242746F84A0121059400E0D2
:103BF000044316F8013F203B01FA03F01042F7D1CD
:103C000030782A2811D06FF02F033078A0F13002DD
:103C1000092A16D8059A44F0020402EB820203EB4B
:103C200042021044761C0590EFE759F8042B0592E8
:103C3000002A03DA504244F40054059044F0020490
:103C4000761C30782E2816D116F8010F44F00404A3
:103C50002A280DD06FF02F023078A0F13003092B05
:103C600009D807EB870302EB4303C718761CF3E779
:103C700059F8047B761C30786C280FD006DC4C2871
:103C800017D068280DD06A2814D104E0742810D009
:103C90007A280FD10DE044F400140AE044F48014B3
:103CA00001E044F440147278824202D104F5801499
:103CB000761C761C307866280BD013DC582877D019
:103CC00009DC002875D04528F6D04628F4D04728CE
:103CD0001AD19DE118E0632835D0642879D0652891
:103CE00012D195E1702873D008DC6728F1D06928DB
:103CF0006FD06E280DD06F2806D1B5E073282CD078
:103D0000752875D0782874D05A46179990476D1C3D
:103D100075E1C4F30250022809D003280DD0D9F868
:103D2000001004280DD00D6009F1040967E1D9F8ED
:103D30000010EA17C1E90052F6E7D9F800100D802B
:103D4000F2E70D70F0E719F8041B8DF80010002061
:103D50008DF80100EA46012003E059F804AB4FF06A
:103D6000FF3061074FF0000102D40DE008F10101BE
:103D70008846B9420FDA8045F8DB1AF808100029A6
:103D8000F4D108E008F1010188468142FADB1AF813
:103D900008100029F6D105985B46A0EB08072146DC
:103DA0003846179A00F094FA284400EB080507E01B
:103DB0004DE029E10DE01AF8010B5A46179990479A
:103DC000B8F10108F7D25B4621463846179A13E14D
:103DD00042E00A220092C4F302524FF0000A022A83
:103DE00008D059F804CB032A4FEAEC710AD00DE051
:103DF00029E02AE009F1070121F00702F2E802C1F7
:103E0000914609E00FFA8CFC4FEAEC71042A03D1C9
:103E10004FFA8CFC4FEAEC71002907DA0A460021C0
:103E2000DCF1000C61EB02012D2202E0220504D539
:103E30002B228DF80420012203E0E20701D020228A
:103E4000F7E7904659E00A2102E010220DE0102128
:103E50004FF0000A00910BE010224FF0000A44F0EE
:103E600004040827009203E008224FF0000A0092A1
:103E7000C4F30252022A05D059F804CB0021032AC8
:103E800008D009E009F1070121F00702F2E802C1B8
:103E9000914605E01FFA8CFC042A01D10CF0FF0CBE
:103EA0004FF00008220728D5702806D0009B83F029
:103EB000100353EA0A0305D00EE040228DF80420D7
:103EC000012208E05CEA010206D030228DF80420CD
:103ED0008DF8050002229046009B83F0080353EA08
:103EE0000A030AD15CEA010201D1620705D530223A
:103EF0008DF804204FF001087F1E582804D034A00C
:103F000003900EA802900DE036A0F9E753466046F4
:103F1000009AFCF707F984460398825C0298401ED9
:103F2000029002705CEA0100F0D1029806A9081A1A
:103F300000F1200A600702D524F4803400E0012754
:103F4000574502DDA7EB0A0000E0002000EB0A0164
:103F5000009005984144401A0590E00306D45B4662
:103F60002146179A059800F0B3F90544002706E0AA
:103F700001A85A46C05D179990476D1C7F1C4745A4
:103F8000F6DBE0030CD55B462146179A059800F056
:103F90009FF9054404E030205A46179990476D1C5C
:103FA0000099481E00900029F5DC08E0029802996B
:103FB0005A460078491C0291179990476D1CBAF136
:103FC0000001AAF1010AF1DC65E100000928010005
:103FD000303132333435363738396162636465667F
:103FE0000000000030313233343536373839414241
:103FF000434445460000000000F058F90544761C93
:10400000307800287FF4ECAD19B02846BDE8F08F79
:10401000620700D4062709F1070222F0070CFCE82A
:104020000223E14603F000485FEA080C02D00FF2D9
:10403000702C0DE05FEA045C02D50FF2682C07E0FB
:104040005FEAC47C02D00FF2602C01E0AFF2700C8A
:104050004FF0FF3823F00043CDF850C065280CD056
:1040600006DC452809D046281DD047283DD13DE033
:10407000662818D067287ED138E00021112F01DB97
:10408000112000E0781CCDE9000106A90EA8FFF779
:10409000DDFCDDE90F010E9A03910021009207F18A
:1040A000010A04914DE04FF000400097CDE9011066
:1040B00006A90EA8FFF7CAFCDDE90F0203920E9BCA
:1040C00011990022DDF80CA00093049211B9791C1B
:1040D00000EB010AB7EB0A0004D4C0F1FF3007F18E
:1040E000010A0490AAEB0700019044E0012F00DAD6
:1040F00001270021112F01DD112000E03846CDE914
:10410000000106A90EA8FFF7A1FCDDE90F010E9A38
:104110000391002104910092BA4621070CD403991F
:10412000514500DA8A46BAF1010F05DD009AAAF17D
:104130000101515C302908D0B84202DA10F1040FB5
:1041400006DA0121CDE9011015E0AAF10101E9E744
:10415000002805DC049901440491AAEB000102E067
:10416000411C514500DD8A460499401A401C0190CB
:104170004FF000400290200704D40198504501DB25
:10418000CDF8048000208DF84F0002980DF14F0704
:10419000B0F1004F25D02B200E9002984FF002086E
:1041A00000280CDA404202902D200E9007E00A21F0
:1041B0000298FCF7B3F83031029007F8011DB8F10E
:1041C0000001A8F10108F2DC02980028EFD1791E65
:1041D0000E980870307800F0200040F0450007F895
:1041E000020D12A8C01B00F107081498007800B156
:1041F000012000EB0A01019801EBE07105984144B0
:10420000401A401E0590E00306D45B462146179AEB
:10421000059800F05DF805441498007818B15A46E6
:10422000179990476D1CE00324D55B462146179AE9
:10423000059800F04DF805441CE00498002807DBC1
:10424000DDE90301884203DD0098405C179901E035
:10425000179930205A469047049805F10105401CF3
:1042600004900198401E019004D12E205A461799BF
:1042700090476D1CBAF10001AAF1010ADDDC05E0EE
:1042800017F8010B5A46179990476D1CB8F10001B9
:10429000A8F10108F4DC5B462146179A0598ABE6C5
:1042A0002D0000002B000000200000002DE9F0414F
:1042B000044600251E461746880404D405E0394606
:1042C0002020B0476D1C641EF9D52846BDE8F0815A
:1042D0002DE9F041044600251E469046C80301D54D
:1042E000302700E02027880404D505E04146384601
:1042F000B0476D1C641EF9D52846BDE8F0810A68F8
:10430000531C0B601070704771B54FF461754FF01E
:10431000E0244EF66026009818E02B46984200D81C
:104320000346A069A3EB031110EB810105D4A26938
:10433000824208DA8A42FADA05E08A19A1698142E2
:10434000FCDD9142FADC0098C01A00900028E4D10C
:1043500078BD00002DE9F0410E4C06461546207848
:104360000F46B04205D16078B84202D1A078A84289
:104370000ED03146042000F05BFC3946032000F0EB
:1043800057FC2946022000F053FC26706770A57088
:10439000BDE8F0814800002010B52820FEF70CFE93
:1043A0000520FCF753FF2820FEF706FE0520FCF74A
:1043B0004DFF2820FEF700FE0520FCF747FF0C20EC
:1043C000FEF7FAFD0520FCF741FF0120FEF7F4FDA2
:1043D0000A20FCF73BFF0620FEF7EEFD0520FCF768
:1043E00035FF0021084600F023FC2221012000F0C7
:1043F0001FFC0021022000F01BFC0021032000F024
:1044000017FC0021042000F013FC0021052000F01F
:104410000FFC0A20FCF71AFFFF21062000F008FC21
:104420000021072000F004FCFF21082000F000FC20
:10443000BDE810400A20FCF709BF00000FB42DE9C9
:10444000F0470E46044607460BAA1C480A99FFF798
:10445000CBFA1A48FBF7B9FE1FFA80F9314620461D
:10446000FCF7BDFA0025DFF8548016E0012E12D8C3
:1044700018F805000A2819D00F2C06D9761CF6B2B8
:104480003C4631463846FCF7AAFA641CE4B218F8F8
:104490000500FEF7A5FD6D1CADB24D45E6D301202C
:1044A000FCF7D4FEBDE8F0075DF814FB761CF6B20D
:1044B0003C4631463846FCF792FAECE7E001002032
:1044C000002086B04FF0010A8146804604900646DF
:1044D0000590FDF71BFAFFF787F8FEF7B9FDFEF729
:1044E0007BFEFEF733FFFEF78FFDFEF7ABFEFEF718
:1044F00053FEFEF7DDFEFFF74FFF00F069FBF948C2
:10450000FEF766F8FCF7B4F9642100220846FFF7CD
:1045100021FFF5485346007808B1F4A200E0F7A265
:1045200000210120FFF78AFFEF4C03200C3C002202
:104530006070A4F11101F448FDF7F9FDA4F1110038
:1045400004F11C0B4078012500240090E64F0C3F3D
:10455000787830B1012804D002285ED0032875D1C4
:10456000A5E1EA484078E8B1E84A012814D09178FA
:10457000D078814208D9DC4AA2F11D021278824229
:104580000AD38A420ED307E012D2D74A1D3A1278D4
:10459000824207D28A4205D30021032000F02EFB7D
:1045A000BD7009E00121032000F028FBBC7003E08E
:1045B0000021032000F022FBD448007E50B10128E6
:1045C00002D0B9F1000F05DC0021062000F016FB37
:1045D0007D7004E00121062000F010FB7C70CB48C8
:1045E000808860B1B8F1000F09DC0021042000F0E0
:1045F00005FB0021052000F001FBFD7008E0012112
:10460000042000F0FBFA0121052000F0F7FAFC700D
:10461000BE480078002819D04EE1B34928390879FE
:10462000002871D0042812D800224FF48071B848B5
:10463000FCF737FF0C21B748FEF7D0F9002E04D164
:10464000A94828380179491E0171ABE03EE1A6492D
:1046500042F6E06328398869C21A984230D011DCEA
:10466000B0F57A6F30D004DC70B3B0F5FA6F1BD1BF
:1046700026E0B0F5FA5F2AD0A0F5E260B0F5005F61
:1046800012D121E04FF4FA6082421DD0B2F57A6F68
:104690001DD002F50962B2F5005215D0824203D155
:1046A0004D718C71CD718C618F4828388169491C9E
:1046B0008161007A70B1012827D0022872D141E0CF
:1046C0004C7102E0CC71EFE74D718C71FAE74D71DE
:1046D0008D71F7E70121084600F090FA00210220D1
:1046E00000F08CFA0121042000F088FA0021052056
:1046F00000F084FA7C4805212838017141798279DB
:1047000011434FD105724DE0BCE00021012000F0C3
:1047100075FA0121022000F071FA0121042000F055
:104720006DFA0121052000F069FA6F48062128384A
:1047300001714179012935D18179012932D10221D3
:1047400001722FE00021012000F058FA012102201F
:1047500000F054FA0021042000F050FA0121052055
:1047600000F04CFA604807212838017141798279BC
:104770001143C7D0C079012814D10121084600F0A7
:104780003DFA0121022000F039FA0021042000F056
:1047900035FA0021052000F031FA53480421283869
:1047A00001710472504828380079082818D2DFE8CF
:1047B00000F0175B42342A1F07048BF8005008E012
:1047C0008BF800408BF80150FF218BF8021010216C
:1047D00016E0454B0822103391010020FBF7BAFF89
:1047E000F6B3414828380079042865D8761E63E07E
:1047F0008BF800408BF80150FF218BF8021020212C
:104800008BF80310E5E78BF800408BF80150FF218F
:104810008BF802108BF80350DBE71EB93B48C068E9
:10482000F0B106468BF800408BF80150FF218BF861
:10483000021002210CE01EB93448006980B106461E
:104840008BF800408BF80150FF218BF802100421F7
:10485000254B8BF80310103308229101002000E053
:104860002AE0FBF777FFBCE71EB92848406918B378
:1048700006468BF800408BF80150FF218BF80210A0
:104880000821E5E7184B08228BF8005010339101FE
:104890000020FBF75FFF012211021D48FCF701FE1B
:1048A0000C211C48FEF7EAF80598787004E01748D8
:1048B0000078012800D17C700B482838807A0128C4
:1048C00006D0022828D003283FD14BE00320ECE794
:1048D0000AF1010000F0FF0ABAF1060F39D94FF0D2
:1048E000010A36E00C0100202800002072656C618E
:1048F00079202564206F66662000000072656C6177
:1049000079202564206F6E00F80000205C000020F4
:10491000000C0140540100208E4901EB0A0010F800
:10492000011C49B100F8014C10F8011CBAF1030F49
:1049300005D8F022504606E000F8015CF4E7AAF141
:104940000300C0B2F12200F02BF982482838807AA7
:10495000A0B180485346504410F8010C30B1AFF27A
:10496000740204E07B4828380471F2E77AA200213F
:104970000120FFF763FD774828388472754828388E
:10498000407A072804D073492839092823D043E006
:10499000FBF740FF0A2190FBF1F0387007218BF8FC
:1049A000001039788BF8011079788BF80210B978FB
:1049B0008BF803106748F9788BF80410807840B1C1
:1049C000BC70644B0822103301210020FBF7C2FEAB
:1049D0001FE0BD70F5E70878F0B90879E0B95D49E6
:1049E0000720283908710021012000F007F9012172
:1049F000022000F003F90121042000F0FFF800215B
:104A0000052000F0FBF878780590022042F210763D
:104A100078705048283844724E4808380178012987
:104A200008D0787850B1012808D0022809D003288E
:104A30000BD00FE042788178C07809E00022642131
:104A400001E064220021002002E0642100220846E7
:104A5000FFF780FC3F4F283FF87801281FD14249DB
:104A6000087F01280CD1087E022809D1A9F101098B
:104A70003A69C9EB0910B2EB800F01DDB1F81A9069
:104A8000887901280AD1888840B1A8F101087A699B
:104A9000C8EB0811B2EB810F00DD8046FC70B878DE
:104AA000012817D13048017F49B9017E022906D17A
:104AB0003A69A9F10109914501DAB0F81A908179B2
:104AC00039B9808828B17A69A8F10108904500DADF
:104AD0008046BC7004984FF4FA71B0FBF1F201FB10
:104AE000120070BB1B4900221D392048FDF71FFB37
:104AF00018490022091F1D48FDF7F2FA1549009ACE
:104B00001D394878904202D17A78012A19D1114A88
:104B10001049A2F104021D39977809785378CDE93C
:104B20000037CDE90210D378092901D910A200E09D
:104B300015A201210020FFF781FC06481D384078AE
:104B400000900498401CC0B204900120FCF77EFB4A
:104B5000FCE400002800002072656C617920256467
:104B6000206F6E20000000005C000020F800002094
:104B70003230253032642D25642D25642025643A99
:104B800025303264000000003230253032642D259B
:104B9000642D25642025643A25303264200000000D
:104BA00008B58DF800008DF801108DF80220012263
:104BB000D1030548FCF775FC4FF47A73032269466C
:104BC0000248FEF71BF808BD000801409C010020C8
:104BD00008B55A208DF800000122D1030548FCF7E2
:104BE00060FC4FF47A73012269460348FEF706F829
:104BF00008BD0000000801409C0100200B4A10B5D0
:104C0000024412F8013C8B420FD002F8011C032829
:104C100003D9C01EC0B2F12200E0F022FFF7C0FFAE
:104C2000BDE810406420FCF711BB10BD2800002037
:104C300013B584B00A24012305A98DE81A000246A1
:104C4000C0210248FCF792FD06B010BDA400002070
:104C5000000000000000000001020304060708092C
:104C60000000000001020304884C0008000000203E
:104C70005C0000002C3A0008E44C00085C000020B6
:104C80004C0600003C3A0008000000000001000053
:104C90000000000000000000FFFFFFFFFFFFFFFF1C
:104CA0000000000000000000000000000000000004
:104CB00001010101010100000000000000000000EE
:104CC00000000000000000000000000000000000E4
:104CD00000000000010000001000000000000000C3
:044CE0000024F400B8
:04000005080000ED02
:00000001FF
